{
	"contracts/tweet.sol": {
		"Twitter": {
			"abi": [
				{
					"inputs": [
						{
							"internalType": "string",
							"name": "_tweet",
							"type": "string"
						}
					],
					"name": "createTweets",
					"outputs": [],
					"stateMutability": "nonpayable",
					"type": "function"
				},
				{
					"inputs": [
						{
							"internalType": "address",
							"name": "_owner",
							"type": "address"
						}
					],
					"name": "getAllTweets",
					"outputs": [
						{
							"components": [
								{
									"internalType": "address",
									"name": "author",
									"type": "address"
								},
								{
									"internalType": "string",
									"name": "content",
									"type": "string"
								},
								{
									"internalType": "uint256",
									"name": "timestamp",
									"type": "uint256"
								},
								{
									"internalType": "uint256",
									"name": "likes",
									"type": "uint256"
								}
							],
							"internalType": "struct Twitter.Tweet[]",
							"name": "",
							"type": "tuple[]"
						}
					],
					"stateMutability": "view",
					"type": "function"
				},
				{
					"inputs": [
						{
							"internalType": "address",
							"name": "_owner",
							"type": "address"
						},
						{
							"internalType": "uint256",
							"name": "_i",
							"type": "uint256"
						}
					],
					"name": "getTweets",
					"outputs": [
						{
							"components": [
								{
									"internalType": "address",
									"name": "author",
									"type": "address"
								},
								{
									"internalType": "string",
									"name": "content",
									"type": "string"
								},
								{
									"internalType": "uint256",
									"name": "timestamp",
									"type": "uint256"
								},
								{
									"internalType": "uint256",
									"name": "likes",
									"type": "uint256"
								}
							],
							"internalType": "struct Twitter.Tweet",
							"name": "",
							"type": "tuple"
						}
					],
					"stateMutability": "view",
					"type": "function"
				},
				{
					"inputs": [
						{
							"internalType": "address",
							"name": "_owner",
							"type": "address"
						},
						{
							"internalType": "uint256",
							"name": "_i",
							"type": "uint256"
						}
					],
					"name": "hitLike",
					"outputs": [],
					"stateMutability": "nonpayable",
					"type": "function"
				},
				{
					"inputs": [
						{
							"internalType": "address",
							"name": "",
							"type": "address"
						},
						{
							"internalType": "uint256",
							"name": "",
							"type": "uint256"
						}
					],
					"name": "tweets",
					"outputs": [
						{
							"internalType": "address",
							"name": "author",
							"type": "address"
						},
						{
							"internalType": "string",
							"name": "content",
							"type": "string"
						},
						{
							"internalType": "uint256",
							"name": "timestamp",
							"type": "uint256"
						},
						{
							"internalType": "uint256",
							"name": "likes",
							"type": "uint256"
						}
					],
					"stateMutability": "view",
					"type": "function"
				}
			],
			"devdoc": {
				"kind": "dev",
				"methods": {},
				"version": 1
			},
			"evm": {
				"assembly": "    /* \"contracts/tweet.sol\":62:1008  contract Twitter{... */\n  mstore(0x40, 0x80)\n  callvalue\n  dup1\n  iszero\n  tag_1\n  jumpi\n  0x00\n  dup1\n  revert\ntag_1:\n  pop\n  dataSize(sub_0)\n  dup1\n  dataOffset(sub_0)\n  0x00\n  codecopy\n  0x00\n  return\nstop\n\nsub_0: assembly {\n        /* \"contracts/tweet.sol\":62:1008  contract Twitter{... */\n      mstore(0x40, 0x80)\n      callvalue\n      dup1\n      iszero\n      tag_1\n      jumpi\n      0x00\n      dup1\n      revert\n    tag_1:\n      pop\n      jumpi(tag_2, lt(calldatasize, 0x04))\n      shr(0xe0, calldataload(0x00))\n      dup1\n      0x05a1b4a9\n      eq\n      tag_3\n      jumpi\n      dup1\n      0x06b57a04\n      eq\n      tag_4\n      jumpi\n      dup1\n      0x0a7aa8a1\n      eq\n      tag_5\n      jumpi\n      dup1\n      0x12e7ee1c\n      eq\n      tag_6\n      jumpi\n      dup1\n      0x2cf02026\n      eq\n      tag_7\n      jumpi\n    tag_2:\n      0x00\n      dup1\n      revert\n        /* \"contracts/tweet.sol\":214:256  mapping (address => Tweet[]) public tweets */\n    tag_3:\n      tag_8\n      0x04\n      dup1\n      calldatasize\n      sub\n      dup2\n      add\n      swap1\n      tag_9\n      swap2\n      swap1\n      tag_10\n      jump\t// in\n    tag_9:\n      tag_11\n      jump\t// in\n    tag_8:\n      mload(0x40)\n      tag_12\n      swap5\n      swap4\n      swap3\n      swap2\n      swap1\n      tag_13\n      jump\t// in\n    tag_12:\n      mload(0x40)\n      dup1\n      swap2\n      sub\n      swap1\n      return\n        /* \"contracts/tweet.sol\":558:753  function hitLike(address _owner, uint _i) public {... */\n    tag_4:\n      tag_14\n      0x04\n      dup1\n      calldatasize\n      sub\n      dup2\n      add\n      swap1\n      tag_15\n      swap2\n      swap1\n      tag_10\n      jump\t// in\n    tag_15:\n      tag_16\n      jump\t// in\n    tag_14:\n      stop\n        /* \"contracts/tweet.sol\":265:550  function createTweets(string memory _tweet) public {... */\n    tag_5:\n      tag_17\n      0x04\n      dup1\n      calldatasize\n      sub\n      dup2\n      add\n      swap1\n      tag_18\n      swap2\n      swap1\n      tag_19\n      jump\t// in\n    tag_18:\n      tag_20\n      jump\t// in\n    tag_17:\n      stop\n        /* \"contracts/tweet.sol\":891:1005  function getAllTweets(address _owner) public view returns(Tweet[] memory) {... */\n    tag_6:\n      tag_21\n      0x04\n      dup1\n      calldatasize\n      sub\n      dup2\n      add\n      swap1\n      tag_22\n      swap2\n      swap1\n      tag_23\n      jump\t// in\n    tag_22:\n      tag_24\n      jump\t// in\n    tag_21:\n      mload(0x40)\n      tag_25\n      swap2\n      swap1\n      tag_26\n      jump\t// in\n    tag_25:\n      mload(0x40)\n      dup1\n      swap2\n      sub\n      swap1\n      return\n        /* \"contracts/tweet.sol\":761:883  function getTweets(address _owner, uint _i) public view returns(Tweet memory) {... */\n    tag_7:\n      tag_27\n      0x04\n      dup1\n      calldatasize\n      sub\n      dup2\n      add\n      swap1\n      tag_28\n      swap2\n      swap1\n      tag_10\n      jump\t// in\n    tag_28:\n      tag_29\n      jump\t// in\n    tag_27:\n      mload(0x40)\n      tag_30\n      swap2\n      swap1\n      tag_31\n      jump\t// in\n    tag_30:\n      mload(0x40)\n      dup1\n      swap2\n      sub\n      swap1\n      return\n        /* \"contracts/tweet.sol\":214:256  mapping (address => Tweet[]) public tweets */\n    tag_11:\n      mstore(0x20, 0x00)\n      dup2\n      0x00\n      mstore\n      keccak256(0x00, 0x40)\n      dup2\n      dup2\n      sload\n      dup2\n      lt\n      tag_32\n      jumpi\n      0x00\n      dup1\n      revert\n    tag_32:\n      swap1\n      0x00\n      mstore\n      keccak256(0x00, 0x20)\n      swap1\n      0x04\n      mul\n      add\n      0x00\n      swap2\n      pop\n      swap2\n      pop\n      pop\n      dup1\n      0x00\n      add\n      0x00\n      swap1\n      sload\n      swap1\n      0x0100\n      exp\n      swap1\n      div\n      0xffffffffffffffffffffffffffffffffffffffff\n      and\n      swap1\n      dup1\n      0x01\n      add\n      dup1\n      sload\n      tag_34\n      swap1\n      tag_35\n      jump\t// in\n    tag_34:\n      dup1\n      0x1f\n      add\n      0x20\n      dup1\n      swap2\n      div\n      mul\n      0x20\n      add\n      mload(0x40)\n      swap1\n      dup2\n      add\n      0x40\n      mstore\n      dup1\n      swap3\n      swap2\n      swap1\n      dup2\n      dup2\n      mstore\n      0x20\n      add\n      dup3\n      dup1\n      sload\n      tag_36\n      swap1\n      tag_35\n      jump\t// in\n    tag_36:\n      dup1\n      iszero\n      tag_37\n      jumpi\n      dup1\n      0x1f\n      lt\n      tag_38\n      jumpi\n      0x0100\n      dup1\n      dup4\n      sload\n      div\n      mul\n      dup4\n      mstore\n      swap2\n      0x20\n      add\n      swap2\n      jump(tag_37)\n    tag_38:\n      dup3\n      add\n      swap2\n      swap1\n      0x00\n      mstore\n      keccak256(0x00, 0x20)\n      swap1\n    tag_39:\n      dup2\n      sload\n      dup2\n      mstore\n      swap1\n      0x01\n      add\n      swap1\n      0x20\n      add\n      dup1\n      dup4\n      gt\n      tag_39\n      jumpi\n      dup3\n      swap1\n      sub\n      0x1f\n      and\n      dup3\n      add\n      swap2\n    tag_37:\n      pop\n      pop\n      pop\n      pop\n      pop\n      swap1\n      dup1\n      0x02\n      add\n      sload\n      swap1\n      dup1\n      0x03\n      add\n      sload\n      swap1\n      pop\n      dup5\n      jump\t// out\n        /* \"contracts/tweet.sol\":558:753  function hitLike(address _owner, uint _i) public {... */\n    tag_16:\n        /* \"contracts/tweet.sol\":631:637  tweets */\n      0x00\n        /* \"contracts/tweet.sol\":631:645  tweets[_owner] */\n      dup1\n        /* \"contracts/tweet.sol\":638:644  _owner */\n      dup4\n        /* \"contracts/tweet.sol\":631:645  tweets[_owner] */\n      0xffffffffffffffffffffffffffffffffffffffff\n      and\n      0xffffffffffffffffffffffffffffffffffffffff\n      and\n      dup2\n      mstore\n      0x20\n      add\n      swap1\n      dup2\n      mstore\n      0x20\n      add\n      0x00\n      keccak256\n        /* \"contracts/tweet.sol\":631:652  tweets[_owner].length */\n      dup1\n      sload\n      swap1\n      pop\n        /* \"contracts/tweet.sol\":626:628  _i */\n      dup2\n        /* \"contracts/tweet.sol\":626:652  _i < tweets[_owner].length */\n      lt\n        /* \"contracts/tweet.sol\":618:676  require(_i < tweets[_owner].length, \"Invalid tweet index\") */\n      tag_41\n      jumpi\n      mload(0x40)\n      0x08c379a000000000000000000000000000000000000000000000000000000000\n      dup2\n      mstore\n      0x04\n      add\n      tag_42\n      swap1\n      tag_43\n      jump\t// in\n    tag_42:\n      mload(0x40)\n      dup1\n      swap2\n      sub\n      swap1\n      revert\n    tag_41:\n        /* \"contracts/tweet.sol\":744:745  1 */\n      0x01\n        /* \"contracts/tweet.sol\":716:722  tweets */\n      0x00\n        /* \"contracts/tweet.sol\":716:730  tweets[_owner] */\n      dup1\n        /* \"contracts/tweet.sol\":723:729  _owner */\n      dup5\n        /* \"contracts/tweet.sol\":716:730  tweets[_owner] */\n      0xffffffffffffffffffffffffffffffffffffffff\n      and\n      0xffffffffffffffffffffffffffffffffffffffff\n      and\n      dup2\n      mstore\n      0x20\n      add\n      swap1\n      dup2\n      mstore\n      0x20\n      add\n      0x00\n      keccak256\n        /* \"contracts/tweet.sol\":731:733  _i */\n      dup3\n        /* \"contracts/tweet.sol\":716:734  tweets[_owner][_i] */\n      dup2\n      sload\n      dup2\n      lt\n      tag_44\n      jumpi\n      tag_45\n      tag_46\n      jump\t// in\n    tag_45:\n    tag_44:\n      swap1\n      0x00\n      mstore\n      keccak256(0x00, 0x20)\n      swap1\n      0x04\n      mul\n      add\n        /* \"contracts/tweet.sol\":716:740  tweets[_owner][_i].likes */\n      0x03\n      add\n      0x00\n        /* \"contracts/tweet.sol\":716:745  tweets[_owner][_i].likes += 1 */\n      dup3\n      dup3\n      sload\n      tag_48\n      swap2\n      swap1\n      tag_49\n      jump\t// in\n    tag_48:\n      swap3\n      pop\n      pop\n      dup2\n      swap1\n      sstore\n      pop\n        /* \"contracts/tweet.sol\":558:753  function hitLike(address _owner, uint _i) public {... */\n      pop\n      pop\n      jump\t// out\n        /* \"contracts/tweet.sol\":265:550  function createTweets(string memory _tweet) public {... */\n    tag_20:\n        /* \"contracts/tweet.sol\":327:348  Tweet memory newTweet */\n      0x00\n        /* \"contracts/tweet.sol\":351:496  Tweet({... */\n      mload(0x40)\n      dup1\n      0x80\n      add\n      0x40\n      mstore\n      dup1\n        /* \"contracts/tweet.sol\":380:390  msg.sender */\n      caller\n        /* \"contracts/tweet.sol\":351:496  Tweet({... */\n      0xffffffffffffffffffffffffffffffffffffffff\n      and\n      dup2\n      mstore\n      0x20\n      add\n        /* \"contracts/tweet.sol\":414:420  _tweet */\n      dup4\n        /* \"contracts/tweet.sol\":351:496  Tweet({... */\n      dup2\n      mstore\n      0x20\n      add\n        /* \"contracts/tweet.sol\":446:461  block.timestamp */\n      timestamp\n        /* \"contracts/tweet.sol\":351:496  Tweet({... */\n      dup2\n      mstore\n      0x20\n      add\n        /* \"contracts/tweet.sol\":483:484  0 */\n      0x00\n        /* \"contracts/tweet.sol\":351:496  Tweet({... */\n      dup2\n      mstore\n      pop\n        /* \"contracts/tweet.sol\":327:496  Tweet memory newTweet = Tweet({... */\n      swap1\n      pop\n        /* \"contracts/tweet.sol\":509:515  tweets */\n      0x00\n        /* \"contracts/tweet.sol\":509:527  tweets[msg.sender] */\n      dup1\n        /* \"contracts/tweet.sol\":516:526  msg.sender */\n      caller\n        /* \"contracts/tweet.sol\":509:527  tweets[msg.sender] */\n      0xffffffffffffffffffffffffffffffffffffffff\n      and\n      0xffffffffffffffffffffffffffffffffffffffff\n      and\n      dup2\n      mstore\n      0x20\n      add\n      swap1\n      dup2\n      mstore\n      0x20\n      add\n      0x00\n      keccak256\n        /* \"contracts/tweet.sol\":533:541  newTweet */\n      dup2\n        /* \"contracts/tweet.sol\":509:542  tweets[msg.sender].push(newTweet) */\n      swap1\n      dup1\n      0x01\n      dup2\n      sload\n      add\n      dup1\n      dup3\n      sstore\n      dup1\n      swap2\n      pop\n      pop\n      0x01\n      swap1\n      sub\n      swap1\n      0x00\n      mstore\n      keccak256(0x00, 0x20)\n      swap1\n      0x04\n      mul\n      add\n      0x00\n      swap1\n      swap2\n      swap1\n      swap2\n      swap1\n      swap2\n      pop\n      0x00\n      dup3\n      add\n      mload\n      dup2\n      0x00\n      add\n      exp(0x0100, 0x00)\n      dup2\n      sload\n      dup2\n      0xffffffffffffffffffffffffffffffffffffffff\n      mul\n      not\n      and\n      swap1\n      dup4\n      0xffffffffffffffffffffffffffffffffffffffff\n      and\n      mul\n      or\n      swap1\n      sstore\n      pop\n      0x20\n      dup3\n      add\n      mload\n      dup2\n      0x01\n      add\n      swap1\n      dup2\n      tag_52\n      swap2\n      swap1\n      tag_53\n      jump\t// in\n    tag_52:\n      pop\n      0x40\n      dup3\n      add\n      mload\n      dup2\n      0x02\n      add\n      sstore\n      0x60\n      dup3\n      add\n      mload\n      dup2\n      0x03\n      add\n      sstore\n      pop\n      pop\n        /* \"contracts/tweet.sol\":316:550  {... */\n      pop\n        /* \"contracts/tweet.sol\":265:550  function createTweets(string memory _tweet) public {... */\n      pop\n      jump\t// out\n        /* \"contracts/tweet.sol\":891:1005  function getAllTweets(address _owner) public view returns(Tweet[] memory) {... */\n    tag_24:\n        /* \"contracts/tweet.sol\":949:963  Tweet[] memory */\n      0x60\n        /* \"contracts/tweet.sol\":983:989  tweets */\n      0x00\n        /* \"contracts/tweet.sol\":983:997  tweets[_owner] */\n      dup1\n        /* \"contracts/tweet.sol\":990:996  _owner */\n      dup4\n        /* \"contracts/tweet.sol\":983:997  tweets[_owner] */\n      0xffffffffffffffffffffffffffffffffffffffff\n      and\n      0xffffffffffffffffffffffffffffffffffffffff\n      and\n      dup2\n      mstore\n      0x20\n      add\n      swap1\n      dup2\n      mstore\n      0x20\n      add\n      0x00\n      keccak256\n        /* \"contracts/tweet.sol\":976:997  return tweets[_owner] */\n      dup1\n      sload\n      dup1\n      0x20\n      mul\n      0x20\n      add\n      mload(0x40)\n      swap1\n      dup2\n      add\n      0x40\n      mstore\n      dup1\n      swap3\n      swap2\n      swap1\n      dup2\n      dup2\n      mstore\n      0x20\n      add\n      0x00\n      swap1\n    tag_55:\n      dup3\n      dup3\n      lt\n      iszero\n      tag_56\n      jumpi\n      dup4\n      dup3\n      swap1\n      0x00\n      mstore\n      keccak256(0x00, 0x20)\n      swap1\n      0x04\n      mul\n      add\n      mload(0x40)\n      dup1\n      0x80\n      add\n      0x40\n      mstore\n      swap1\n      dup2\n      0x00\n      dup3\n      add\n      0x00\n      swap1\n      sload\n      swap1\n      0x0100\n      exp\n      swap1\n      div\n      0xffffffffffffffffffffffffffffffffffffffff\n      and\n      0xffffffffffffffffffffffffffffffffffffffff\n      and\n      0xffffffffffffffffffffffffffffffffffffffff\n      and\n      dup2\n      mstore\n      0x20\n      add\n      0x01\n      dup3\n      add\n      dup1\n      sload\n      tag_58\n      swap1\n      tag_35\n      jump\t// in\n    tag_58:\n      dup1\n      0x1f\n      add\n      0x20\n      dup1\n      swap2\n      div\n      mul\n      0x20\n      add\n      mload(0x40)\n      swap1\n      dup2\n      add\n      0x40\n      mstore\n      dup1\n      swap3\n      swap2\n      swap1\n      dup2\n      dup2\n      mstore\n      0x20\n      add\n      dup3\n      dup1\n      sload\n      tag_59\n      swap1\n      tag_35\n      jump\t// in\n    tag_59:\n      dup1\n      iszero\n      tag_60\n      jumpi\n      dup1\n      0x1f\n      lt\n      tag_61\n      jumpi\n      0x0100\n      dup1\n      dup4\n      sload\n      div\n      mul\n      dup4\n      mstore\n      swap2\n      0x20\n      add\n      swap2\n      jump(tag_60)\n    tag_61:\n      dup3\n      add\n      swap2\n      swap1\n      0x00\n      mstore\n      keccak256(0x00, 0x20)\n      swap1\n    tag_62:\n      dup2\n      sload\n      dup2\n      mstore\n      swap1\n      0x01\n      add\n      swap1\n      0x20\n      add\n      dup1\n      dup4\n      gt\n      tag_62\n      jumpi\n      dup3\n      swap1\n      sub\n      0x1f\n      and\n      dup3\n      add\n      swap2\n    tag_60:\n      pop\n      pop\n      pop\n      pop\n      pop\n      dup2\n      mstore\n      0x20\n      add\n      0x02\n      dup3\n      add\n      sload\n      dup2\n      mstore\n      0x20\n      add\n      0x03\n      dup3\n      add\n      sload\n      dup2\n      mstore\n      pop\n      pop\n      dup2\n      mstore\n      0x20\n      add\n      swap1\n      0x01\n      add\n      swap1\n      jump(tag_55)\n    tag_56:\n      pop\n      pop\n      pop\n      pop\n      swap1\n      pop\n        /* \"contracts/tweet.sol\":891:1005  function getAllTweets(address _owner) public view returns(Tweet[] memory) {... */\n      swap2\n      swap1\n      pop\n      jump\t// out\n        /* \"contracts/tweet.sol\":761:883  function getTweets(address _owner, uint _i) public view returns(Tweet memory) {... */\n    tag_29:\n        /* \"contracts/tweet.sol\":825:837  Tweet memory */\n      tag_63\n      tag_64\n      jump\t// in\n    tag_63:\n        /* \"contracts/tweet.sol\":857:863  tweets */\n      0x00\n        /* \"contracts/tweet.sol\":857:871  tweets[_owner] */\n      dup1\n        /* \"contracts/tweet.sol\":864:870  _owner */\n      dup5\n        /* \"contracts/tweet.sol\":857:871  tweets[_owner] */\n      0xffffffffffffffffffffffffffffffffffffffff\n      and\n      0xffffffffffffffffffffffffffffffffffffffff\n      and\n      dup2\n      mstore\n      0x20\n      add\n      swap1\n      dup2\n      mstore\n      0x20\n      add\n      0x00\n      keccak256\n        /* \"contracts/tweet.sol\":872:874  _i */\n      dup3\n        /* \"contracts/tweet.sol\":857:875  tweets[_owner][_i] */\n      dup2\n      sload\n      dup2\n      lt\n      tag_66\n      jumpi\n      tag_67\n      tag_46\n      jump\t// in\n    tag_67:\n    tag_66:\n      swap1\n      0x00\n      mstore\n      keccak256(0x00, 0x20)\n      swap1\n      0x04\n      mul\n      add\n        /* \"contracts/tweet.sol\":850:875  return tweets[_owner][_i] */\n      mload(0x40)\n      dup1\n      0x80\n      add\n      0x40\n      mstore\n      swap1\n      dup2\n      0x00\n      dup3\n      add\n      0x00\n      swap1\n      sload\n      swap1\n      0x0100\n      exp\n      swap1\n      div\n      0xffffffffffffffffffffffffffffffffffffffff\n      and\n      0xffffffffffffffffffffffffffffffffffffffff\n      and\n      0xffffffffffffffffffffffffffffffffffffffff\n      and\n      dup2\n      mstore\n      0x20\n      add\n      0x01\n      dup3\n      add\n      dup1\n      sload\n      tag_69\n      swap1\n      tag_35\n      jump\t// in\n    tag_69:\n      dup1\n      0x1f\n      add\n      0x20\n      dup1\n      swap2\n      div\n      mul\n      0x20\n      add\n      mload(0x40)\n      swap1\n      dup2\n      add\n      0x40\n      mstore\n      dup1\n      swap3\n      swap2\n      swap1\n      dup2\n      dup2\n      mstore\n      0x20\n      add\n      dup3\n      dup1\n      sload\n      tag_70\n      swap1\n      tag_35\n      jump\t// in\n    tag_70:\n      dup1\n      iszero\n      tag_71\n      jumpi\n      dup1\n      0x1f\n      lt\n      tag_72\n      jumpi\n      0x0100\n      dup1\n      dup4\n      sload\n      div\n      mul\n      dup4\n      mstore\n      swap2\n      0x20\n      add\n      swap2\n      jump(tag_71)\n    tag_72:\n      dup3\n      add\n      swap2\n      swap1\n      0x00\n      mstore\n      keccak256(0x00, 0x20)\n      swap1\n    tag_73:\n      dup2\n      sload\n      dup2\n      mstore\n      swap1\n      0x01\n      add\n      swap1\n      0x20\n      add\n      dup1\n      dup4\n      gt\n      tag_73\n      jumpi\n      dup3\n      swap1\n      sub\n      0x1f\n      and\n      dup3\n      add\n      swap2\n    tag_71:\n      pop\n      pop\n      pop\n      pop\n      pop\n      dup2\n      mstore\n      0x20\n      add\n      0x02\n      dup3\n      add\n      sload\n      dup2\n      mstore\n      0x20\n      add\n      0x03\n      dup3\n      add\n      sload\n      dup2\n      mstore\n      pop\n      pop\n      swap1\n      pop\n        /* \"contracts/tweet.sol\":761:883  function getTweets(address _owner, uint _i) public view returns(Tweet memory) {... */\n      swap3\n      swap2\n      pop\n      pop\n      jump\t// out\n    tag_64:\n      mload(0x40)\n      dup1\n      0x80\n      add\n      0x40\n      mstore\n      dup1\n      and(0xffffffffffffffffffffffffffffffffffffffff, 0x00)\n      dup2\n      mstore\n      0x20\n      add\n      0x60\n      dup2\n      mstore\n      0x20\n      add\n      0x00\n      dup2\n      mstore\n      0x20\n      add\n      0x00\n      dup2\n      mstore\n      pop\n      swap1\n      jump\t// out\n        /* \"#utility.yul\":7:82   */\n    tag_74:\n        /* \"#utility.yul\":40:46   */\n      0x00\n        /* \"#utility.yul\":73:75   */\n      0x40\n        /* \"#utility.yul\":67:76   */\n      mload\n        /* \"#utility.yul\":57:76   */\n      swap1\n      pop\n        /* \"#utility.yul\":7:82   */\n      swap1\n      jump\t// out\n        /* \"#utility.yul\":88:205   */\n    tag_75:\n        /* \"#utility.yul\":197:198   */\n      0x00\n        /* \"#utility.yul\":194:195   */\n      dup1\n        /* \"#utility.yul\":187:199   */\n      revert\n        /* \"#utility.yul\":211:328   */\n    tag_76:\n        /* \"#utility.yul\":320:321   */\n      0x00\n        /* \"#utility.yul\":317:318   */\n      dup1\n        /* \"#utility.yul\":310:322   */\n      revert\n        /* \"#utility.yul\":334:460   */\n    tag_77:\n        /* \"#utility.yul\":371:378   */\n      0x00\n        /* \"#utility.yul\":411:453   */\n      0xffffffffffffffffffffffffffffffffffffffff\n        /* \"#utility.yul\":404:409   */\n      dup3\n        /* \"#utility.yul\":400:454   */\n      and\n        /* \"#utility.yul\":389:454   */\n      swap1\n      pop\n        /* \"#utility.yul\":334:460   */\n      swap2\n      swap1\n      pop\n      jump\t// out\n        /* \"#utility.yul\":466:562   */\n    tag_78:\n        /* \"#utility.yul\":503:510   */\n      0x00\n        /* \"#utility.yul\":532:556   */\n      tag_137\n        /* \"#utility.yul\":550:555   */\n      dup3\n        /* \"#utility.yul\":532:556   */\n      tag_77\n      jump\t// in\n    tag_137:\n        /* \"#utility.yul\":521:556   */\n      swap1\n      pop\n        /* \"#utility.yul\":466:562   */\n      swap2\n      swap1\n      pop\n      jump\t// out\n        /* \"#utility.yul\":568:690   */\n    tag_79:\n        /* \"#utility.yul\":641:665   */\n      tag_139\n        /* \"#utility.yul\":659:664   */\n      dup2\n        /* \"#utility.yul\":641:665   */\n      tag_78\n      jump\t// in\n    tag_139:\n        /* \"#utility.yul\":634:639   */\n      dup2\n        /* \"#utility.yul\":631:666   */\n      eq\n        /* \"#utility.yul\":621:684   */\n      tag_140\n      jumpi\n        /* \"#utility.yul\":680:681   */\n      0x00\n        /* \"#utility.yul\":677:678   */\n      dup1\n        /* \"#utility.yul\":670:682   */\n      revert\n        /* \"#utility.yul\":621:684   */\n    tag_140:\n        /* \"#utility.yul\":568:690   */\n      pop\n      jump\t// out\n        /* \"#utility.yul\":696:835   */\n    tag_80:\n        /* \"#utility.yul\":742:747   */\n      0x00\n        /* \"#utility.yul\":780:786   */\n      dup2\n        /* \"#utility.yul\":767:787   */\n      calldataload\n        /* \"#utility.yul\":758:787   */\n      swap1\n      pop\n        /* \"#utility.yul\":796:829   */\n      tag_142\n        /* \"#utility.yul\":823:828   */\n      dup2\n        /* \"#utility.yul\":796:829   */\n      tag_79\n      jump\t// in\n    tag_142:\n        /* \"#utility.yul\":696:835   */\n      swap3\n      swap2\n      pop\n      pop\n      jump\t// out\n        /* \"#utility.yul\":841:918   */\n    tag_81:\n        /* \"#utility.yul\":878:885   */\n      0x00\n        /* \"#utility.yul\":907:912   */\n      dup2\n        /* \"#utility.yul\":896:912   */\n      swap1\n      pop\n        /* \"#utility.yul\":841:918   */\n      swap2\n      swap1\n      pop\n      jump\t// out\n        /* \"#utility.yul\":924:1046   */\n    tag_82:\n        /* \"#utility.yul\":997:1021   */\n      tag_145\n        /* \"#utility.yul\":1015:1020   */\n      dup2\n        /* \"#utility.yul\":997:1021   */\n      tag_81\n      jump\t// in\n    tag_145:\n        /* \"#utility.yul\":990:995   */\n      dup2\n        /* \"#utility.yul\":987:1022   */\n      eq\n        /* \"#utility.yul\":977:1040   */\n      tag_146\n      jumpi\n        /* \"#utility.yul\":1036:1037   */\n      0x00\n        /* \"#utility.yul\":1033:1034   */\n      dup1\n        /* \"#utility.yul\":1026:1038   */\n      revert\n        /* \"#utility.yul\":977:1040   */\n    tag_146:\n        /* \"#utility.yul\":924:1046   */\n      pop\n      jump\t// out\n        /* \"#utility.yul\":1052:1191   */\n    tag_83:\n        /* \"#utility.yul\":1098:1103   */\n      0x00\n        /* \"#utility.yul\":1136:1142   */\n      dup2\n        /* \"#utility.yul\":1123:1143   */\n      calldataload\n        /* \"#utility.yul\":1114:1143   */\n      swap1\n      pop\n        /* \"#utility.yul\":1152:1185   */\n      tag_148\n        /* \"#utility.yul\":1179:1184   */\n      dup2\n        /* \"#utility.yul\":1152:1185   */\n      tag_82\n      jump\t// in\n    tag_148:\n        /* \"#utility.yul\":1052:1191   */\n      swap3\n      swap2\n      pop\n      pop\n      jump\t// out\n        /* \"#utility.yul\":1197:1671   */\n    tag_10:\n        /* \"#utility.yul\":1265:1271   */\n      0x00\n        /* \"#utility.yul\":1273:1279   */\n      dup1\n        /* \"#utility.yul\":1322:1324   */\n      0x40\n        /* \"#utility.yul\":1310:1319   */\n      dup4\n        /* \"#utility.yul\":1301:1308   */\n      dup6\n        /* \"#utility.yul\":1297:1320   */\n      sub\n        /* \"#utility.yul\":1293:1325   */\n      slt\n        /* \"#utility.yul\":1290:1409   */\n      iszero\n      tag_150\n      jumpi\n        /* \"#utility.yul\":1328:1407   */\n      tag_151\n      tag_75\n      jump\t// in\n    tag_151:\n        /* \"#utility.yul\":1290:1409   */\n    tag_150:\n        /* \"#utility.yul\":1448:1449   */\n      0x00\n        /* \"#utility.yul\":1473:1526   */\n      tag_152\n        /* \"#utility.yul\":1518:1525   */\n      dup6\n        /* \"#utility.yul\":1509:1515   */\n      dup3\n        /* \"#utility.yul\":1498:1507   */\n      dup7\n        /* \"#utility.yul\":1494:1516   */\n      add\n        /* \"#utility.yul\":1473:1526   */\n      tag_80\n      jump\t// in\n    tag_152:\n        /* \"#utility.yul\":1463:1526   */\n      swap3\n      pop\n        /* \"#utility.yul\":1419:1536   */\n      pop\n        /* \"#utility.yul\":1575:1577   */\n      0x20\n        /* \"#utility.yul\":1601:1654   */\n      tag_153\n        /* \"#utility.yul\":1646:1653   */\n      dup6\n        /* \"#utility.yul\":1637:1643   */\n      dup3\n        /* \"#utility.yul\":1626:1635   */\n      dup7\n        /* \"#utility.yul\":1622:1644   */\n      add\n        /* \"#utility.yul\":1601:1654   */\n      tag_83\n      jump\t// in\n    tag_153:\n        /* \"#utility.yul\":1591:1654   */\n      swap2\n      pop\n        /* \"#utility.yul\":1546:1664   */\n      pop\n        /* \"#utility.yul\":1197:1671   */\n      swap3\n      pop\n      swap3\n      swap1\n      pop\n      jump\t// out\n        /* \"#utility.yul\":1677:1795   */\n    tag_84:\n        /* \"#utility.yul\":1764:1788   */\n      tag_155\n        /* \"#utility.yul\":1782:1787   */\n      dup2\n        /* \"#utility.yul\":1764:1788   */\n      tag_78\n      jump\t// in\n    tag_155:\n        /* \"#utility.yul\":1759:1762   */\n      dup3\n        /* \"#utility.yul\":1752:1789   */\n      mstore\n        /* \"#utility.yul\":1677:1795   */\n      pop\n      pop\n      jump\t// out\n        /* \"#utility.yul\":1801:1900   */\n    tag_85:\n        /* \"#utility.yul\":1853:1859   */\n      0x00\n        /* \"#utility.yul\":1887:1892   */\n      dup2\n        /* \"#utility.yul\":1881:1893   */\n      mload\n        /* \"#utility.yul\":1871:1893   */\n      swap1\n      pop\n        /* \"#utility.yul\":1801:1900   */\n      swap2\n      swap1\n      pop\n      jump\t// out\n        /* \"#utility.yul\":1906:2075   */\n    tag_86:\n        /* \"#utility.yul\":1990:2001   */\n      0x00\n        /* \"#utility.yul\":2024:2030   */\n      dup3\n        /* \"#utility.yul\":2019:2022   */\n      dup3\n        /* \"#utility.yul\":2012:2031   */\n      mstore\n        /* \"#utility.yul\":2064:2068   */\n      0x20\n        /* \"#utility.yul\":2059:2062   */\n      dup3\n        /* \"#utility.yul\":2055:2069   */\n      add\n        /* \"#utility.yul\":2040:2069   */\n      swap1\n      pop\n        /* \"#utility.yul\":1906:2075   */\n      swap3\n      swap2\n      pop\n      pop\n      jump\t// out\n        /* \"#utility.yul\":2081:2220   */\n    tag_87:\n        /* \"#utility.yul\":2170:2176   */\n      dup3\n        /* \"#utility.yul\":2165:2168   */\n      dup2\n        /* \"#utility.yul\":2160:2163   */\n      dup4\n        /* \"#utility.yul\":2154:2177   */\n      mcopy\n        /* \"#utility.yul\":2211:2212   */\n      0x00\n        /* \"#utility.yul\":2202:2208   */\n      dup4\n        /* \"#utility.yul\":2197:2200   */\n      dup4\n        /* \"#utility.yul\":2193:2209   */\n      add\n        /* \"#utility.yul\":2186:2213   */\n      mstore\n        /* \"#utility.yul\":2081:2220   */\n      pop\n      pop\n      pop\n      jump\t// out\n        /* \"#utility.yul\":2226:2328   */\n    tag_88:\n        /* \"#utility.yul\":2267:2273   */\n      0x00\n        /* \"#utility.yul\":2318:2320   */\n      0x1f\n        /* \"#utility.yul\":2314:2321   */\n      not\n        /* \"#utility.yul\":2309:2311   */\n      0x1f\n        /* \"#utility.yul\":2302:2307   */\n      dup4\n        /* \"#utility.yul\":2298:2312   */\n      add\n        /* \"#utility.yul\":2294:2322   */\n      and\n        /* \"#utility.yul\":2284:2322   */\n      swap1\n      pop\n        /* \"#utility.yul\":2226:2328   */\n      swap2\n      swap1\n      pop\n      jump\t// out\n        /* \"#utility.yul\":2334:2711   */\n    tag_89:\n        /* \"#utility.yul\":2422:2425   */\n      0x00\n        /* \"#utility.yul\":2450:2489   */\n      tag_161\n        /* \"#utility.yul\":2483:2488   */\n      dup3\n        /* \"#utility.yul\":2450:2489   */\n      tag_85\n      jump\t// in\n    tag_161:\n        /* \"#utility.yul\":2505:2576   */\n      tag_162\n        /* \"#utility.yul\":2569:2575   */\n      dup2\n        /* \"#utility.yul\":2564:2567   */\n      dup6\n        /* \"#utility.yul\":2505:2576   */\n      tag_86\n      jump\t// in\n    tag_162:\n        /* \"#utility.yul\":2498:2576   */\n      swap4\n      pop\n        /* \"#utility.yul\":2585:2650   */\n      tag_163\n        /* \"#utility.yul\":2643:2649   */\n      dup2\n        /* \"#utility.yul\":2638:2641   */\n      dup6\n        /* \"#utility.yul\":2631:2635   */\n      0x20\n        /* \"#utility.yul\":2624:2629   */\n      dup7\n        /* \"#utility.yul\":2620:2636   */\n      add\n        /* \"#utility.yul\":2585:2650   */\n      tag_87\n      jump\t// in\n    tag_163:\n        /* \"#utility.yul\":2675:2704   */\n      tag_164\n        /* \"#utility.yul\":2697:2703   */\n      dup2\n        /* \"#utility.yul\":2675:2704   */\n      tag_88\n      jump\t// in\n    tag_164:\n        /* \"#utility.yul\":2670:2673   */\n      dup5\n        /* \"#utility.yul\":2666:2705   */\n      add\n        /* \"#utility.yul\":2659:2705   */\n      swap2\n      pop\n        /* \"#utility.yul\":2426:2711   */\n      pop\n        /* \"#utility.yul\":2334:2711   */\n      swap3\n      swap2\n      pop\n      pop\n      jump\t// out\n        /* \"#utility.yul\":2717:2835   */\n    tag_90:\n        /* \"#utility.yul\":2804:2828   */\n      tag_166\n        /* \"#utility.yul\":2822:2827   */\n      dup2\n        /* \"#utility.yul\":2804:2828   */\n      tag_81\n      jump\t// in\n    tag_166:\n        /* \"#utility.yul\":2799:2802   */\n      dup3\n        /* \"#utility.yul\":2792:2829   */\n      mstore\n        /* \"#utility.yul\":2717:2835   */\n      pop\n      pop\n      jump\t// out\n        /* \"#utility.yul\":2841:3485   */\n    tag_13:\n        /* \"#utility.yul\":3038:3042   */\n      0x00\n        /* \"#utility.yul\":3076:3079   */\n      0x80\n        /* \"#utility.yul\":3065:3074   */\n      dup3\n        /* \"#utility.yul\":3061:3080   */\n      add\n        /* \"#utility.yul\":3053:3080   */\n      swap1\n      pop\n        /* \"#utility.yul\":3090:3161   */\n      tag_168\n        /* \"#utility.yul\":3158:3159   */\n      0x00\n        /* \"#utility.yul\":3147:3156   */\n      dup4\n        /* \"#utility.yul\":3143:3160   */\n      add\n        /* \"#utility.yul\":3134:3140   */\n      dup8\n        /* \"#utility.yul\":3090:3161   */\n      tag_84\n      jump\t// in\n    tag_168:\n        /* \"#utility.yul\":3208:3217   */\n      dup2\n        /* \"#utility.yul\":3202:3206   */\n      dup2\n        /* \"#utility.yul\":3198:3218   */\n      sub\n        /* \"#utility.yul\":3193:3195   */\n      0x20\n        /* \"#utility.yul\":3182:3191   */\n      dup4\n        /* \"#utility.yul\":3178:3196   */\n      add\n        /* \"#utility.yul\":3171:3219   */\n      mstore\n        /* \"#utility.yul\":3236:3314   */\n      tag_169\n        /* \"#utility.yul\":3309:3313   */\n      dup2\n        /* \"#utility.yul\":3300:3306   */\n      dup7\n        /* \"#utility.yul\":3236:3314   */\n      tag_89\n      jump\t// in\n    tag_169:\n        /* \"#utility.yul\":3228:3314   */\n      swap1\n      pop\n        /* \"#utility.yul\":3324:3396   */\n      tag_170\n        /* \"#utility.yul\":3392:3394   */\n      0x40\n        /* \"#utility.yul\":3381:3390   */\n      dup4\n        /* \"#utility.yul\":3377:3395   */\n      add\n        /* \"#utility.yul\":3368:3374   */\n      dup6\n        /* \"#utility.yul\":3324:3396   */\n      tag_90\n      jump\t// in\n    tag_170:\n        /* \"#utility.yul\":3406:3478   */\n      tag_171\n        /* \"#utility.yul\":3474:3476   */\n      0x60\n        /* \"#utility.yul\":3463:3472   */\n      dup4\n        /* \"#utility.yul\":3459:3477   */\n      add\n        /* \"#utility.yul\":3450:3456   */\n      dup5\n        /* \"#utility.yul\":3406:3478   */\n      tag_90\n      jump\t// in\n    tag_171:\n        /* \"#utility.yul\":2841:3485   */\n      swap6\n      swap5\n      pop\n      pop\n      pop\n      pop\n      pop\n      jump\t// out\n        /* \"#utility.yul\":3491:3608   */\n    tag_91:\n        /* \"#utility.yul\":3600:3601   */\n      0x00\n        /* \"#utility.yul\":3597:3598   */\n      dup1\n        /* \"#utility.yul\":3590:3602   */\n      revert\n        /* \"#utility.yul\":3614:3731   */\n    tag_92:\n        /* \"#utility.yul\":3723:3724   */\n      0x00\n        /* \"#utility.yul\":3720:3721   */\n      dup1\n        /* \"#utility.yul\":3713:3725   */\n      revert\n        /* \"#utility.yul\":3737:3917   */\n    tag_93:\n        /* \"#utility.yul\":3785:3862   */\n      0x4e487b7100000000000000000000000000000000000000000000000000000000\n        /* \"#utility.yul\":3782:3783   */\n      0x00\n        /* \"#utility.yul\":3775:3863   */\n      mstore\n        /* \"#utility.yul\":3882:3886   */\n      0x41\n        /* \"#utility.yul\":3879:3880   */\n      0x04\n        /* \"#utility.yul\":3872:3887   */\n      mstore\n        /* \"#utility.yul\":3906:3910   */\n      0x24\n        /* \"#utility.yul\":3903:3904   */\n      0x00\n        /* \"#utility.yul\":3896:3911   */\n      revert\n        /* \"#utility.yul\":3923:4204   */\n    tag_94:\n        /* \"#utility.yul\":4006:4033   */\n      tag_176\n        /* \"#utility.yul\":4028:4032   */\n      dup3\n        /* \"#utility.yul\":4006:4033   */\n      tag_88\n      jump\t// in\n    tag_176:\n        /* \"#utility.yul\":3998:4004   */\n      dup2\n        /* \"#utility.yul\":3994:4034   */\n      add\n        /* \"#utility.yul\":4136:4142   */\n      dup2\n        /* \"#utility.yul\":4124:4134   */\n      dup2\n        /* \"#utility.yul\":4121:4143   */\n      lt\n        /* \"#utility.yul\":4100:4118   */\n      0xffffffffffffffff\n        /* \"#utility.yul\":4088:4098   */\n      dup3\n        /* \"#utility.yul\":4085:4119   */\n      gt\n        /* \"#utility.yul\":4082:4144   */\n      or\n        /* \"#utility.yul\":4079:4167   */\n      iszero\n      tag_177\n      jumpi\n        /* \"#utility.yul\":4147:4165   */\n      tag_178\n      tag_93\n      jump\t// in\n    tag_178:\n        /* \"#utility.yul\":4079:4167   */\n    tag_177:\n        /* \"#utility.yul\":4187:4197   */\n      dup1\n        /* \"#utility.yul\":4183:4185   */\n      0x40\n        /* \"#utility.yul\":4176:4198   */\n      mstore\n        /* \"#utility.yul\":3966:4204   */\n      pop\n        /* \"#utility.yul\":3923:4204   */\n      pop\n      pop\n      jump\t// out\n        /* \"#utility.yul\":4210:4339   */\n    tag_95:\n        /* \"#utility.yul\":4244:4250   */\n      0x00\n        /* \"#utility.yul\":4271:4291   */\n      tag_180\n      tag_74\n      jump\t// in\n    tag_180:\n        /* \"#utility.yul\":4261:4291   */\n      swap1\n      pop\n        /* \"#utility.yul\":4300:4333   */\n      tag_181\n        /* \"#utility.yul\":4328:4332   */\n      dup3\n        /* \"#utility.yul\":4320:4326   */\n      dup3\n        /* \"#utility.yul\":4300:4333   */\n      tag_94\n      jump\t// in\n    tag_181:\n        /* \"#utility.yul\":4210:4339   */\n      swap2\n      swap1\n      pop\n      jump\t// out\n        /* \"#utility.yul\":4345:4653   */\n    tag_96:\n        /* \"#utility.yul\":4407:4411   */\n      0x00\n        /* \"#utility.yul\":4497:4515   */\n      0xffffffffffffffff\n        /* \"#utility.yul\":4489:4495   */\n      dup3\n        /* \"#utility.yul\":4486:4516   */\n      gt\n        /* \"#utility.yul\":4483:4539   */\n      iszero\n      tag_183\n      jumpi\n        /* \"#utility.yul\":4519:4537   */\n      tag_184\n      tag_93\n      jump\t// in\n    tag_184:\n        /* \"#utility.yul\":4483:4539   */\n    tag_183:\n        /* \"#utility.yul\":4557:4586   */\n      tag_185\n        /* \"#utility.yul\":4579:4585   */\n      dup3\n        /* \"#utility.yul\":4557:4586   */\n      tag_88\n      jump\t// in\n    tag_185:\n        /* \"#utility.yul\":4549:4586   */\n      swap1\n      pop\n        /* \"#utility.yul\":4641:4645   */\n      0x20\n        /* \"#utility.yul\":4635:4639   */\n      dup2\n        /* \"#utility.yul\":4631:4646   */\n      add\n        /* \"#utility.yul\":4623:4646   */\n      swap1\n      pop\n        /* \"#utility.yul\":4345:4653   */\n      swap2\n      swap1\n      pop\n      jump\t// out\n        /* \"#utility.yul\":4659:4807   */\n    tag_97:\n        /* \"#utility.yul\":4757:4763   */\n      dup3\n        /* \"#utility.yul\":4752:4755   */\n      dup2\n        /* \"#utility.yul\":4747:4750   */\n      dup4\n        /* \"#utility.yul\":4734:4764   */\n      calldatacopy\n        /* \"#utility.yul\":4798:4799   */\n      0x00\n        /* \"#utility.yul\":4789:4795   */\n      dup4\n        /* \"#utility.yul\":4784:4787   */\n      dup4\n        /* \"#utility.yul\":4780:4796   */\n      add\n        /* \"#utility.yul\":4773:4800   */\n      mstore\n        /* \"#utility.yul\":4659:4807   */\n      pop\n      pop\n      pop\n      jump\t// out\n        /* \"#utility.yul\":4813:5238   */\n    tag_98:\n        /* \"#utility.yul\":4891:4896   */\n      0x00\n        /* \"#utility.yul\":4916:4982   */\n      tag_188\n        /* \"#utility.yul\":4932:4981   */\n      tag_189\n        /* \"#utility.yul\":4974:4980   */\n      dup5\n        /* \"#utility.yul\":4932:4981   */\n      tag_96\n      jump\t// in\n    tag_189:\n        /* \"#utility.yul\":4916:4982   */\n      tag_95\n      jump\t// in\n    tag_188:\n        /* \"#utility.yul\":4907:4982   */\n      swap1\n      pop\n        /* \"#utility.yul\":5005:5011   */\n      dup3\n        /* \"#utility.yul\":4998:5003   */\n      dup2\n        /* \"#utility.yul\":4991:5012   */\n      mstore\n        /* \"#utility.yul\":5043:5047   */\n      0x20\n        /* \"#utility.yul\":5036:5041   */\n      dup2\n        /* \"#utility.yul\":5032:5048   */\n      add\n        /* \"#utility.yul\":5081:5084   */\n      dup5\n        /* \"#utility.yul\":5072:5078   */\n      dup5\n        /* \"#utility.yul\":5067:5070   */\n      dup5\n        /* \"#utility.yul\":5063:5079   */\n      add\n        /* \"#utility.yul\":5060:5085   */\n      gt\n        /* \"#utility.yul\":5057:5169   */\n      iszero\n      tag_190\n      jumpi\n        /* \"#utility.yul\":5088:5167   */\n      tag_191\n      tag_92\n      jump\t// in\n    tag_191:\n        /* \"#utility.yul\":5057:5169   */\n    tag_190:\n        /* \"#utility.yul\":5178:5232   */\n      tag_192\n        /* \"#utility.yul\":5225:5231   */\n      dup5\n        /* \"#utility.yul\":5220:5223   */\n      dup3\n        /* \"#utility.yul\":5215:5218   */\n      dup6\n        /* \"#utility.yul\":5178:5232   */\n      tag_97\n      jump\t// in\n    tag_192:\n        /* \"#utility.yul\":4897:5238   */\n      pop\n        /* \"#utility.yul\":4813:5238   */\n      swap4\n      swap3\n      pop\n      pop\n      pop\n      jump\t// out\n        /* \"#utility.yul\":5258:5598   */\n    tag_99:\n        /* \"#utility.yul\":5314:5319   */\n      0x00\n        /* \"#utility.yul\":5363:5366   */\n      dup3\n        /* \"#utility.yul\":5356:5360   */\n      0x1f\n        /* \"#utility.yul\":5348:5354   */\n      dup4\n        /* \"#utility.yul\":5344:5361   */\n      add\n        /* \"#utility.yul\":5340:5367   */\n      slt\n        /* \"#utility.yul\":5330:5452   */\n      tag_194\n      jumpi\n        /* \"#utility.yul\":5371:5450   */\n      tag_195\n      tag_91\n      jump\t// in\n    tag_195:\n        /* \"#utility.yul\":5330:5452   */\n    tag_194:\n        /* \"#utility.yul\":5488:5494   */\n      dup2\n        /* \"#utility.yul\":5475:5495   */\n      calldataload\n        /* \"#utility.yul\":5513:5592   */\n      tag_196\n        /* \"#utility.yul\":5588:5591   */\n      dup5\n        /* \"#utility.yul\":5580:5586   */\n      dup3\n        /* \"#utility.yul\":5573:5577   */\n      0x20\n        /* \"#utility.yul\":5565:5571   */\n      dup7\n        /* \"#utility.yul\":5561:5578   */\n      add\n        /* \"#utility.yul\":5513:5592   */\n      tag_98\n      jump\t// in\n    tag_196:\n        /* \"#utility.yul\":5504:5592   */\n      swap2\n      pop\n        /* \"#utility.yul\":5320:5598   */\n      pop\n        /* \"#utility.yul\":5258:5598   */\n      swap3\n      swap2\n      pop\n      pop\n      jump\t// out\n        /* \"#utility.yul\":5604:6113   */\n    tag_19:\n        /* \"#utility.yul\":5673:5679   */\n      0x00\n        /* \"#utility.yul\":5722:5724   */\n      0x20\n        /* \"#utility.yul\":5710:5719   */\n      dup3\n        /* \"#utility.yul\":5701:5708   */\n      dup5\n        /* \"#utility.yul\":5697:5720   */\n      sub\n        /* \"#utility.yul\":5693:5725   */\n      slt\n        /* \"#utility.yul\":5690:5809   */\n      iszero\n      tag_198\n      jumpi\n        /* \"#utility.yul\":5728:5807   */\n      tag_199\n      tag_75\n      jump\t// in\n    tag_199:\n        /* \"#utility.yul\":5690:5809   */\n    tag_198:\n        /* \"#utility.yul\":5876:5877   */\n      0x00\n        /* \"#utility.yul\":5865:5874   */\n      dup3\n        /* \"#utility.yul\":5861:5878   */\n      add\n        /* \"#utility.yul\":5848:5879   */\n      calldataload\n        /* \"#utility.yul\":5906:5924   */\n      0xffffffffffffffff\n        /* \"#utility.yul\":5898:5904   */\n      dup2\n        /* \"#utility.yul\":5895:5925   */\n      gt\n        /* \"#utility.yul\":5892:6009   */\n      iszero\n      tag_200\n      jumpi\n        /* \"#utility.yul\":5928:6007   */\n      tag_201\n      tag_76\n      jump\t// in\n    tag_201:\n        /* \"#utility.yul\":5892:6009   */\n    tag_200:\n        /* \"#utility.yul\":6033:6096   */\n      tag_202\n        /* \"#utility.yul\":6088:6095   */\n      dup5\n        /* \"#utility.yul\":6079:6085   */\n      dup3\n        /* \"#utility.yul\":6068:6077   */\n      dup6\n        /* \"#utility.yul\":6064:6086   */\n      add\n        /* \"#utility.yul\":6033:6096   */\n      tag_99\n      jump\t// in\n    tag_202:\n        /* \"#utility.yul\":6023:6096   */\n      swap2\n      pop\n        /* \"#utility.yul\":5819:6106   */\n      pop\n        /* \"#utility.yul\":5604:6113   */\n      swap3\n      swap2\n      pop\n      pop\n      jump\t// out\n        /* \"#utility.yul\":6119:6448   */\n    tag_23:\n        /* \"#utility.yul\":6178:6184   */\n      0x00\n        /* \"#utility.yul\":6227:6229   */\n      0x20\n        /* \"#utility.yul\":6215:6224   */\n      dup3\n        /* \"#utility.yul\":6206:6213   */\n      dup5\n        /* \"#utility.yul\":6202:6225   */\n      sub\n        /* \"#utility.yul\":6198:6230   */\n      slt\n        /* \"#utility.yul\":6195:6314   */\n      iszero\n      tag_204\n      jumpi\n        /* \"#utility.yul\":6233:6312   */\n      tag_205\n      tag_75\n      jump\t// in\n    tag_205:\n        /* \"#utility.yul\":6195:6314   */\n    tag_204:\n        /* \"#utility.yul\":6353:6354   */\n      0x00\n        /* \"#utility.yul\":6378:6431   */\n      tag_206\n        /* \"#utility.yul\":6423:6430   */\n      dup5\n        /* \"#utility.yul\":6414:6420   */\n      dup3\n        /* \"#utility.yul\":6403:6412   */\n      dup6\n        /* \"#utility.yul\":6399:6421   */\n      add\n        /* \"#utility.yul\":6378:6431   */\n      tag_80\n      jump\t// in\n    tag_206:\n        /* \"#utility.yul\":6368:6431   */\n      swap2\n      pop\n        /* \"#utility.yul\":6324:6441   */\n      pop\n        /* \"#utility.yul\":6119:6448   */\n      swap3\n      swap2\n      pop\n      pop\n      jump\t// out\n        /* \"#utility.yul\":6454:6589   */\n    tag_100:\n        /* \"#utility.yul\":6542:6548   */\n      0x00\n        /* \"#utility.yul\":6576:6581   */\n      dup2\n        /* \"#utility.yul\":6570:6582   */\n      mload\n        /* \"#utility.yul\":6560:6582   */\n      swap1\n      pop\n        /* \"#utility.yul\":6454:6589   */\n      swap2\n      swap1\n      pop\n      jump\t// out\n        /* \"#utility.yul\":6595:6800   */\n    tag_101:\n        /* \"#utility.yul\":6715:6726   */\n      0x00\n        /* \"#utility.yul\":6749:6755   */\n      dup3\n        /* \"#utility.yul\":6744:6747   */\n      dup3\n        /* \"#utility.yul\":6737:6756   */\n      mstore\n        /* \"#utility.yul\":6789:6793   */\n      0x20\n        /* \"#utility.yul\":6784:6787   */\n      dup3\n        /* \"#utility.yul\":6780:6794   */\n      add\n        /* \"#utility.yul\":6765:6794   */\n      swap1\n      pop\n        /* \"#utility.yul\":6595:6800   */\n      swap3\n      swap2\n      pop\n      pop\n      jump\t// out\n        /* \"#utility.yul\":6806:6959   */\n    tag_102:\n        /* \"#utility.yul\":6894:6898   */\n      0x00\n        /* \"#utility.yul\":6917:6920   */\n      dup2\n        /* \"#utility.yul\":6909:6920   */\n      swap1\n      pop\n        /* \"#utility.yul\":6947:6951   */\n      0x20\n        /* \"#utility.yul\":6942:6945   */\n      dup3\n        /* \"#utility.yul\":6938:6952   */\n      add\n        /* \"#utility.yul\":6930:6952   */\n      swap1\n      pop\n        /* \"#utility.yul\":6806:6959   */\n      swap2\n      swap1\n      pop\n      jump\t// out\n        /* \"#utility.yul\":6965:7073   */\n    tag_103:\n        /* \"#utility.yul\":7042:7066   */\n      tag_211\n        /* \"#utility.yul\":7060:7065   */\n      dup2\n        /* \"#utility.yul\":7042:7066   */\n      tag_78\n      jump\t// in\n    tag_211:\n        /* \"#utility.yul\":7037:7040   */\n      dup3\n        /* \"#utility.yul\":7030:7067   */\n      mstore\n        /* \"#utility.yul\":6965:7073   */\n      pop\n      pop\n      jump\t// out\n        /* \"#utility.yul\":7079:7238   */\n    tag_104:\n        /* \"#utility.yul\":7153:7164   */\n      0x00\n        /* \"#utility.yul\":7187:7193   */\n      dup3\n        /* \"#utility.yul\":7182:7185   */\n      dup3\n        /* \"#utility.yul\":7175:7194   */\n      mstore\n        /* \"#utility.yul\":7227:7231   */\n      0x20\n        /* \"#utility.yul\":7222:7225   */\n      dup3\n        /* \"#utility.yul\":7218:7232   */\n      add\n        /* \"#utility.yul\":7203:7232   */\n      swap1\n      pop\n        /* \"#utility.yul\":7079:7238   */\n      swap3\n      swap2\n      pop\n      pop\n      jump\t// out\n        /* \"#utility.yul\":7244:7601   */\n    tag_105:\n        /* \"#utility.yul\":7322:7325   */\n      0x00\n        /* \"#utility.yul\":7350:7389   */\n      tag_214\n        /* \"#utility.yul\":7383:7388   */\n      dup3\n        /* \"#utility.yul\":7350:7389   */\n      tag_85\n      jump\t// in\n    tag_214:\n        /* \"#utility.yul\":7405:7466   */\n      tag_215\n        /* \"#utility.yul\":7459:7465   */\n      dup2\n        /* \"#utility.yul\":7454:7457   */\n      dup6\n        /* \"#utility.yul\":7405:7466   */\n      tag_104\n      jump\t// in\n    tag_215:\n        /* \"#utility.yul\":7398:7466   */\n      swap4\n      pop\n        /* \"#utility.yul\":7475:7540   */\n      tag_216\n        /* \"#utility.yul\":7533:7539   */\n      dup2\n        /* \"#utility.yul\":7528:7531   */\n      dup6\n        /* \"#utility.yul\":7521:7525   */\n      0x20\n        /* \"#utility.yul\":7514:7519   */\n      dup7\n        /* \"#utility.yul\":7510:7526   */\n      add\n        /* \"#utility.yul\":7475:7540   */\n      tag_87\n      jump\t// in\n    tag_216:\n        /* \"#utility.yul\":7565:7594   */\n      tag_217\n        /* \"#utility.yul\":7587:7593   */\n      dup2\n        /* \"#utility.yul\":7565:7594   */\n      tag_88\n      jump\t// in\n    tag_217:\n        /* \"#utility.yul\":7560:7563   */\n      dup5\n        /* \"#utility.yul\":7556:7595   */\n      add\n        /* \"#utility.yul\":7549:7595   */\n      swap2\n      pop\n        /* \"#utility.yul\":7326:7601   */\n      pop\n        /* \"#utility.yul\":7244:7601   */\n      swap3\n      swap2\n      pop\n      pop\n      jump\t// out\n        /* \"#utility.yul\":7607:7715   */\n    tag_106:\n        /* \"#utility.yul\":7684:7708   */\n      tag_219\n        /* \"#utility.yul\":7702:7707   */\n      dup2\n        /* \"#utility.yul\":7684:7708   */\n      tag_81\n      jump\t// in\n    tag_219:\n        /* \"#utility.yul\":7679:7682   */\n      dup3\n        /* \"#utility.yul\":7672:7709   */\n      mstore\n        /* \"#utility.yul\":7607:7715   */\n      pop\n      pop\n      jump\t// out\n        /* \"#utility.yul\":7773:8720   */\n    tag_107:\n        /* \"#utility.yul\":7874:7877   */\n      0x00\n        /* \"#utility.yul\":7910:7914   */\n      0x80\n        /* \"#utility.yul\":7905:7908   */\n      dup4\n        /* \"#utility.yul\":7901:7915   */\n      add\n        /* \"#utility.yul\":7999:8003   */\n      0x00\n        /* \"#utility.yul\":7992:7997   */\n      dup4\n        /* \"#utility.yul\":7988:8004   */\n      add\n        /* \"#utility.yul\":7982:8005   */\n      mload\n        /* \"#utility.yul\":8018:8081   */\n      tag_221\n        /* \"#utility.yul\":8075:8079   */\n      0x00\n        /* \"#utility.yul\":8070:8073   */\n      dup7\n        /* \"#utility.yul\":8066:8080   */\n      add\n        /* \"#utility.yul\":8052:8064   */\n      dup3\n        /* \"#utility.yul\":8018:8081   */\n      tag_103\n      jump\t// in\n    tag_221:\n        /* \"#utility.yul\":7925:8091   */\n      pop\n        /* \"#utility.yul\":8176:8180   */\n      0x20\n        /* \"#utility.yul\":8169:8174   */\n      dup4\n        /* \"#utility.yul\":8165:8181   */\n      add\n        /* \"#utility.yul\":8159:8182   */\n      mload\n        /* \"#utility.yul\":8229:8232   */\n      dup5\n        /* \"#utility.yul\":8223:8227   */\n      dup3\n        /* \"#utility.yul\":8219:8233   */\n      sub\n        /* \"#utility.yul\":8212:8216   */\n      0x20\n        /* \"#utility.yul\":8207:8210   */\n      dup7\n        /* \"#utility.yul\":8203:8217   */\n      add\n        /* \"#utility.yul\":8196:8234   */\n      mstore\n        /* \"#utility.yul\":8255:8328   */\n      tag_222\n        /* \"#utility.yul\":8323:8327   */\n      dup3\n        /* \"#utility.yul\":8309:8321   */\n      dup3\n        /* \"#utility.yul\":8255:8328   */\n      tag_105\n      jump\t// in\n    tag_222:\n        /* \"#utility.yul\":8247:8328   */\n      swap2\n      pop\n        /* \"#utility.yul\":8101:8339   */\n      pop\n        /* \"#utility.yul\":8426:8430   */\n      0x40\n        /* \"#utility.yul\":8419:8424   */\n      dup4\n        /* \"#utility.yul\":8415:8431   */\n      add\n        /* \"#utility.yul\":8409:8432   */\n      mload\n        /* \"#utility.yul\":8445:8508   */\n      tag_223\n        /* \"#utility.yul\":8502:8506   */\n      0x40\n        /* \"#utility.yul\":8497:8500   */\n      dup7\n        /* \"#utility.yul\":8493:8507   */\n      add\n        /* \"#utility.yul\":8479:8491   */\n      dup3\n        /* \"#utility.yul\":8445:8508   */\n      tag_106\n      jump\t// in\n    tag_223:\n        /* \"#utility.yul\":8349:8518   */\n      pop\n        /* \"#utility.yul\":8601:8605   */\n      0x60\n        /* \"#utility.yul\":8594:8599   */\n      dup4\n        /* \"#utility.yul\":8590:8606   */\n      add\n        /* \"#utility.yul\":8584:8607   */\n      mload\n        /* \"#utility.yul\":8620:8683   */\n      tag_224\n        /* \"#utility.yul\":8677:8681   */\n      0x60\n        /* \"#utility.yul\":8672:8675   */\n      dup7\n        /* \"#utility.yul\":8668:8682   */\n      add\n        /* \"#utility.yul\":8654:8666   */\n      dup3\n        /* \"#utility.yul\":8620:8683   */\n      tag_106\n      jump\t// in\n    tag_224:\n        /* \"#utility.yul\":8528:8693   */\n      pop\n        /* \"#utility.yul\":8710:8714   */\n      dup1\n        /* \"#utility.yul\":8703:8714   */\n      swap2\n      pop\n        /* \"#utility.yul\":7879:8720   */\n      pop\n        /* \"#utility.yul\":7773:8720   */\n      swap3\n      swap2\n      pop\n      pop\n      jump\t// out\n        /* \"#utility.yul\":8726:8966   */\n    tag_108:\n        /* \"#utility.yul\":8837:8847   */\n      0x00\n        /* \"#utility.yul\":8872:8960   */\n      tag_226\n        /* \"#utility.yul\":8956:8959   */\n      dup4\n        /* \"#utility.yul\":8948:8954   */\n      dup4\n        /* \"#utility.yul\":8872:8960   */\n      tag_107\n      jump\t// in\n    tag_226:\n        /* \"#utility.yul\":8858:8960   */\n      swap1\n      pop\n        /* \"#utility.yul\":8726:8966   */\n      swap3\n      swap2\n      pop\n      pop\n      jump\t// out\n        /* \"#utility.yul\":8972:9106   */\n    tag_109:\n        /* \"#utility.yul\":9063:9067   */\n      0x00\n        /* \"#utility.yul\":9095:9099   */\n      0x20\n        /* \"#utility.yul\":9090:9093   */\n      dup3\n        /* \"#utility.yul\":9086:9100   */\n      add\n        /* \"#utility.yul\":9078:9100   */\n      swap1\n      pop\n        /* \"#utility.yul\":8972:9106   */\n      swap2\n      swap1\n      pop\n      jump\t// out\n        /* \"#utility.yul\":9168:10247   */\n    tag_110:\n        /* \"#utility.yul\":9329:9332   */\n      0x00\n        /* \"#utility.yul\":9358:9433   */\n      tag_229\n        /* \"#utility.yul\":9427:9432   */\n      dup3\n        /* \"#utility.yul\":9358:9433   */\n      tag_100\n      jump\t// in\n    tag_229:\n        /* \"#utility.yul\":9449:9556   */\n      tag_230\n        /* \"#utility.yul\":9549:9555   */\n      dup2\n        /* \"#utility.yul\":9544:9547   */\n      dup6\n        /* \"#utility.yul\":9449:9556   */\n      tag_101\n      jump\t// in\n    tag_230:\n        /* \"#utility.yul\":9442:9556   */\n      swap4\n      pop\n        /* \"#utility.yul\":9582:9585   */\n      dup4\n        /* \"#utility.yul\":9627:9631   */\n      0x20\n        /* \"#utility.yul\":9619:9625   */\n      dup3\n        /* \"#utility.yul\":9615:9632   */\n      mul\n        /* \"#utility.yul\":9610:9613   */\n      dup6\n        /* \"#utility.yul\":9606:9633   */\n      add\n        /* \"#utility.yul\":9657:9734   */\n      tag_231\n        /* \"#utility.yul\":9728:9733   */\n      dup6\n        /* \"#utility.yul\":9657:9734   */\n      tag_102\n      jump\t// in\n    tag_231:\n        /* \"#utility.yul\":9757:9764   */\n      dup1\n        /* \"#utility.yul\":9788:9789   */\n      0x00\n        /* \"#utility.yul\":9773:10202   */\n    tag_232:\n        /* \"#utility.yul\":9798:9804   */\n      dup6\n        /* \"#utility.yul\":9795:9796   */\n      dup2\n        /* \"#utility.yul\":9792:9805   */\n      lt\n        /* \"#utility.yul\":9773:10202   */\n      iszero\n      tag_234\n      jumpi\n        /* \"#utility.yul\":9869:9878   */\n      dup5\n        /* \"#utility.yul\":9863:9867   */\n      dup5\n        /* \"#utility.yul\":9859:9879   */\n      sub\n        /* \"#utility.yul\":9854:9857   */\n      dup10\n        /* \"#utility.yul\":9847:9880   */\n      mstore\n        /* \"#utility.yul\":9920:9926   */\n      dup2\n        /* \"#utility.yul\":9914:9927   */\n      mload\n        /* \"#utility.yul\":9948:10054   */\n      tag_235\n        /* \"#utility.yul\":10049:10053   */\n      dup6\n        /* \"#utility.yul\":10034:10047   */\n      dup3\n        /* \"#utility.yul\":9948:10054   */\n      tag_108\n      jump\t// in\n    tag_235:\n        /* \"#utility.yul\":9940:10054   */\n      swap5\n      pop\n        /* \"#utility.yul\":10077:10158   */\n      tag_236\n        /* \"#utility.yul\":10151:10157   */\n      dup4\n        /* \"#utility.yul\":10077:10158   */\n      tag_109\n      jump\t// in\n    tag_236:\n        /* \"#utility.yul\":10067:10158   */\n      swap3\n      pop\n        /* \"#utility.yul\":10187:10191   */\n      0x20\n        /* \"#utility.yul\":10182:10185   */\n      dup11\n        /* \"#utility.yul\":10178:10192   */\n      add\n        /* \"#utility.yul\":10171:10192   */\n      swap10\n      pop\n        /* \"#utility.yul\":9833:10202   */\n      pop\n        /* \"#utility.yul\":9820:9821   */\n      0x01\n        /* \"#utility.yul\":9817:9818   */\n      dup2\n        /* \"#utility.yul\":9813:9822   */\n      add\n        /* \"#utility.yul\":9808:9822   */\n      swap1\n      pop\n        /* \"#utility.yul\":9773:10202   */\n      jump(tag_232)\n    tag_234:\n        /* \"#utility.yul\":9777:9791   */\n      pop\n        /* \"#utility.yul\":10218:10222   */\n      dup3\n        /* \"#utility.yul\":10211:10222   */\n      swap8\n      pop\n        /* \"#utility.yul\":10238:10241   */\n      dup8\n        /* \"#utility.yul\":10231:10241   */\n      swap6\n      pop\n        /* \"#utility.yul\":9334:10247   */\n      pop\n      pop\n      pop\n      pop\n      pop\n        /* \"#utility.yul\":9168:10247   */\n      swap3\n      swap2\n      pop\n      pop\n      jump\t// out\n        /* \"#utility.yul\":10253:10710   */\n    tag_26:\n        /* \"#utility.yul\":10438:10442   */\n      0x00\n        /* \"#utility.yul\":10476:10478   */\n      0x20\n        /* \"#utility.yul\":10465:10474   */\n      dup3\n        /* \"#utility.yul\":10461:10479   */\n      add\n        /* \"#utility.yul\":10453:10479   */\n      swap1\n      pop\n        /* \"#utility.yul\":10525:10534   */\n      dup2\n        /* \"#utility.yul\":10519:10523   */\n      dup2\n        /* \"#utility.yul\":10515:10535   */\n      sub\n        /* \"#utility.yul\":10511:10512   */\n      0x00\n        /* \"#utility.yul\":10500:10509   */\n      dup4\n        /* \"#utility.yul\":10496:10513   */\n      add\n        /* \"#utility.yul\":10489:10536   */\n      mstore\n        /* \"#utility.yul\":10553:10703   */\n      tag_238\n        /* \"#utility.yul\":10698:10702   */\n      dup2\n        /* \"#utility.yul\":10689:10695   */\n      dup5\n        /* \"#utility.yul\":10553:10703   */\n      tag_110\n      jump\t// in\n    tag_238:\n        /* \"#utility.yul\":10545:10703   */\n      swap1\n      pop\n        /* \"#utility.yul\":10253:10710   */\n      swap3\n      swap2\n      pop\n      pop\n      jump\t// out\n        /* \"#utility.yul\":10768:11725   */\n    tag_111:\n        /* \"#utility.yul\":10879:10882   */\n      0x00\n        /* \"#utility.yul\":10915:10919   */\n      0x80\n        /* \"#utility.yul\":10910:10913   */\n      dup4\n        /* \"#utility.yul\":10906:10920   */\n      add\n        /* \"#utility.yul\":11004:11008   */\n      0x00\n        /* \"#utility.yul\":10997:11002   */\n      dup4\n        /* \"#utility.yul\":10993:11009   */\n      add\n        /* \"#utility.yul\":10987:11010   */\n      mload\n        /* \"#utility.yul\":11023:11086   */\n      tag_240\n        /* \"#utility.yul\":11080:11084   */\n      0x00\n        /* \"#utility.yul\":11075:11078   */\n      dup7\n        /* \"#utility.yul\":11071:11085   */\n      add\n        /* \"#utility.yul\":11057:11069   */\n      dup3\n        /* \"#utility.yul\":11023:11086   */\n      tag_103\n      jump\t// in\n    tag_240:\n        /* \"#utility.yul\":10930:11096   */\n      pop\n        /* \"#utility.yul\":11181:11185   */\n      0x20\n        /* \"#utility.yul\":11174:11179   */\n      dup4\n        /* \"#utility.yul\":11170:11186   */\n      add\n        /* \"#utility.yul\":11164:11187   */\n      mload\n        /* \"#utility.yul\":11234:11237   */\n      dup5\n        /* \"#utility.yul\":11228:11232   */\n      dup3\n        /* \"#utility.yul\":11224:11238   */\n      sub\n        /* \"#utility.yul\":11217:11221   */\n      0x20\n        /* \"#utility.yul\":11212:11215   */\n      dup7\n        /* \"#utility.yul\":11208:11222   */\n      add\n        /* \"#utility.yul\":11201:11239   */\n      mstore\n        /* \"#utility.yul\":11260:11333   */\n      tag_241\n        /* \"#utility.yul\":11328:11332   */\n      dup3\n        /* \"#utility.yul\":11314:11326   */\n      dup3\n        /* \"#utility.yul\":11260:11333   */\n      tag_105\n      jump\t// in\n    tag_241:\n        /* \"#utility.yul\":11252:11333   */\n      swap2\n      pop\n        /* \"#utility.yul\":11106:11344   */\n      pop\n        /* \"#utility.yul\":11431:11435   */\n      0x40\n        /* \"#utility.yul\":11424:11429   */\n      dup4\n        /* \"#utility.yul\":11420:11436   */\n      add\n        /* \"#utility.yul\":11414:11437   */\n      mload\n        /* \"#utility.yul\":11450:11513   */\n      tag_242\n        /* \"#utility.yul\":11507:11511   */\n      0x40\n        /* \"#utility.yul\":11502:11505   */\n      dup7\n        /* \"#utility.yul\":11498:11512   */\n      add\n        /* \"#utility.yul\":11484:11496   */\n      dup3\n        /* \"#utility.yul\":11450:11513   */\n      tag_106\n      jump\t// in\n    tag_242:\n        /* \"#utility.yul\":11354:11523   */\n      pop\n        /* \"#utility.yul\":11606:11610   */\n      0x60\n        /* \"#utility.yul\":11599:11604   */\n      dup4\n        /* \"#utility.yul\":11595:11611   */\n      add\n        /* \"#utility.yul\":11589:11612   */\n      mload\n        /* \"#utility.yul\":11625:11688   */\n      tag_243\n        /* \"#utility.yul\":11682:11686   */\n      0x60\n        /* \"#utility.yul\":11677:11680   */\n      dup7\n        /* \"#utility.yul\":11673:11687   */\n      add\n        /* \"#utility.yul\":11659:11671   */\n      dup3\n        /* \"#utility.yul\":11625:11688   */\n      tag_106\n      jump\t// in\n    tag_243:\n        /* \"#utility.yul\":11533:11698   */\n      pop\n        /* \"#utility.yul\":11715:11719   */\n      dup1\n        /* \"#utility.yul\":11708:11719   */\n      swap2\n      pop\n        /* \"#utility.yul\":10884:11725   */\n      pop\n        /* \"#utility.yul\":10768:11725   */\n      swap3\n      swap2\n      pop\n      pop\n      jump\t// out\n        /* \"#utility.yul\":11731:12088   */\n    tag_31:\n        /* \"#utility.yul\":11866:11870   */\n      0x00\n        /* \"#utility.yul\":11904:11906   */\n      0x20\n        /* \"#utility.yul\":11893:11902   */\n      dup3\n        /* \"#utility.yul\":11889:11907   */\n      add\n        /* \"#utility.yul\":11881:11907   */\n      swap1\n      pop\n        /* \"#utility.yul\":11953:11962   */\n      dup2\n        /* \"#utility.yul\":11947:11951   */\n      dup2\n        /* \"#utility.yul\":11943:11963   */\n      sub\n        /* \"#utility.yul\":11939:11940   */\n      0x00\n        /* \"#utility.yul\":11928:11937   */\n      dup4\n        /* \"#utility.yul\":11924:11941   */\n      add\n        /* \"#utility.yul\":11917:11964   */\n      mstore\n        /* \"#utility.yul\":11981:12081   */\n      tag_245\n        /* \"#utility.yul\":12076:12080   */\n      dup2\n        /* \"#utility.yul\":12067:12073   */\n      dup5\n        /* \"#utility.yul\":11981:12081   */\n      tag_111\n      jump\t// in\n    tag_245:\n        /* \"#utility.yul\":11973:12081   */\n      swap1\n      pop\n        /* \"#utility.yul\":11731:12088   */\n      swap3\n      swap2\n      pop\n      pop\n      jump\t// out\n        /* \"#utility.yul\":12094:12274   */\n    tag_112:\n        /* \"#utility.yul\":12142:12219   */\n      0x4e487b7100000000000000000000000000000000000000000000000000000000\n        /* \"#utility.yul\":12139:12140   */\n      0x00\n        /* \"#utility.yul\":12132:12220   */\n      mstore\n        /* \"#utility.yul\":12239:12243   */\n      0x22\n        /* \"#utility.yul\":12236:12237   */\n      0x04\n        /* \"#utility.yul\":12229:12244   */\n      mstore\n        /* \"#utility.yul\":12263:12267   */\n      0x24\n        /* \"#utility.yul\":12260:12261   */\n      0x00\n        /* \"#utility.yul\":12253:12268   */\n      revert\n        /* \"#utility.yul\":12280:12600   */\n    tag_35:\n        /* \"#utility.yul\":12324:12330   */\n      0x00\n        /* \"#utility.yul\":12361:12362   */\n      0x02\n        /* \"#utility.yul\":12355:12359   */\n      dup3\n        /* \"#utility.yul\":12351:12363   */\n      div\n        /* \"#utility.yul\":12341:12363   */\n      swap1\n      pop\n        /* \"#utility.yul\":12408:12409   */\n      0x01\n        /* \"#utility.yul\":12402:12406   */\n      dup3\n        /* \"#utility.yul\":12398:12410   */\n      and\n        /* \"#utility.yul\":12429:12447   */\n      dup1\n        /* \"#utility.yul\":12419:12500   */\n      tag_248\n      jumpi\n        /* \"#utility.yul\":12485:12489   */\n      0x7f\n        /* \"#utility.yul\":12477:12483   */\n      dup3\n        /* \"#utility.yul\":12473:12490   */\n      and\n        /* \"#utility.yul\":12463:12490   */\n      swap2\n      pop\n        /* \"#utility.yul\":12419:12500   */\n    tag_248:\n        /* \"#utility.yul\":12547:12549   */\n      0x20\n        /* \"#utility.yul\":12539:12545   */\n      dup3\n        /* \"#utility.yul\":12536:12550   */\n      lt\n        /* \"#utility.yul\":12516:12534   */\n      dup2\n        /* \"#utility.yul\":12513:12551   */\n      sub\n        /* \"#utility.yul\":12510:12594   */\n      tag_249\n      jumpi\n        /* \"#utility.yul\":12566:12584   */\n      tag_250\n      tag_112\n      jump\t// in\n    tag_250:\n        /* \"#utility.yul\":12510:12594   */\n    tag_249:\n        /* \"#utility.yul\":12331:12600   */\n      pop\n        /* \"#utility.yul\":12280:12600   */\n      swap2\n      swap1\n      pop\n      jump\t// out\n        /* \"#utility.yul\":12606:12775   */\n    tag_113:\n        /* \"#utility.yul\":12746:12767   */\n      0x496e76616c696420747765657420696e64657800000000000000000000000000\n        /* \"#utility.yul\":12742:12743   */\n      0x00\n        /* \"#utility.yul\":12734:12740   */\n      dup3\n        /* \"#utility.yul\":12730:12744   */\n      add\n        /* \"#utility.yul\":12723:12768   */\n      mstore\n        /* \"#utility.yul\":12606:12775   */\n      pop\n      jump\t// out\n        /* \"#utility.yul\":12781:13147   */\n    tag_114:\n        /* \"#utility.yul\":12923:12926   */\n      0x00\n        /* \"#utility.yul\":12944:13011   */\n      tag_253\n        /* \"#utility.yul\":13008:13010   */\n      0x13\n        /* \"#utility.yul\":13003:13006   */\n      dup4\n        /* \"#utility.yul\":12944:13011   */\n      tag_86\n      jump\t// in\n    tag_253:\n        /* \"#utility.yul\":12937:13011   */\n      swap2\n      pop\n        /* \"#utility.yul\":13020:13113   */\n      tag_254\n        /* \"#utility.yul\":13109:13112   */\n      dup3\n        /* \"#utility.yul\":13020:13113   */\n      tag_113\n      jump\t// in\n    tag_254:\n        /* \"#utility.yul\":13138:13140   */\n      0x20\n        /* \"#utility.yul\":13133:13136   */\n      dup3\n        /* \"#utility.yul\":13129:13141   */\n      add\n        /* \"#utility.yul\":13122:13141   */\n      swap1\n      pop\n        /* \"#utility.yul\":12781:13147   */\n      swap2\n      swap1\n      pop\n      jump\t// out\n        /* \"#utility.yul\":13153:13572   */\n    tag_43:\n        /* \"#utility.yul\":13319:13323   */\n      0x00\n        /* \"#utility.yul\":13357:13359   */\n      0x20\n        /* \"#utility.yul\":13346:13355   */\n      dup3\n        /* \"#utility.yul\":13342:13360   */\n      add\n        /* \"#utility.yul\":13334:13360   */\n      swap1\n      pop\n        /* \"#utility.yul\":13406:13415   */\n      dup2\n        /* \"#utility.yul\":13400:13404   */\n      dup2\n        /* \"#utility.yul\":13396:13416   */\n      sub\n        /* \"#utility.yul\":13392:13393   */\n      0x00\n        /* \"#utility.yul\":13381:13390   */\n      dup4\n        /* \"#utility.yul\":13377:13394   */\n      add\n        /* \"#utility.yul\":13370:13417   */\n      mstore\n        /* \"#utility.yul\":13434:13565   */\n      tag_256\n        /* \"#utility.yul\":13560:13564   */\n      dup2\n        /* \"#utility.yul\":13434:13565   */\n      tag_114\n      jump\t// in\n    tag_256:\n        /* \"#utility.yul\":13426:13565   */\n      swap1\n      pop\n        /* \"#utility.yul\":13153:13572   */\n      swap2\n      swap1\n      pop\n      jump\t// out\n        /* \"#utility.yul\":13578:13758   */\n    tag_46:\n        /* \"#utility.yul\":13626:13703   */\n      0x4e487b7100000000000000000000000000000000000000000000000000000000\n        /* \"#utility.yul\":13623:13624   */\n      0x00\n        /* \"#utility.yul\":13616:13704   */\n      mstore\n        /* \"#utility.yul\":13723:13727   */\n      0x32\n        /* \"#utility.yul\":13720:13721   */\n      0x04\n        /* \"#utility.yul\":13713:13728   */\n      mstore\n        /* \"#utility.yul\":13747:13751   */\n      0x24\n        /* \"#utility.yul\":13744:13745   */\n      0x00\n        /* \"#utility.yul\":13737:13752   */\n      revert\n        /* \"#utility.yul\":13764:13944   */\n    tag_115:\n        /* \"#utility.yul\":13812:13889   */\n      0x4e487b7100000000000000000000000000000000000000000000000000000000\n        /* \"#utility.yul\":13809:13810   */\n      0x00\n        /* \"#utility.yul\":13802:13890   */\n      mstore\n        /* \"#utility.yul\":13909:13913   */\n      0x11\n        /* \"#utility.yul\":13906:13907   */\n      0x04\n        /* \"#utility.yul\":13899:13914   */\n      mstore\n        /* \"#utility.yul\":13933:13937   */\n      0x24\n        /* \"#utility.yul\":13930:13931   */\n      0x00\n        /* \"#utility.yul\":13923:13938   */\n      revert\n        /* \"#utility.yul\":13950:14141   */\n    tag_49:\n        /* \"#utility.yul\":13990:13993   */\n      0x00\n        /* \"#utility.yul\":14009:14029   */\n      tag_260\n        /* \"#utility.yul\":14027:14028   */\n      dup3\n        /* \"#utility.yul\":14009:14029   */\n      tag_81\n      jump\t// in\n    tag_260:\n        /* \"#utility.yul\":14004:14029   */\n      swap2\n      pop\n        /* \"#utility.yul\":14043:14063   */\n      tag_261\n        /* \"#utility.yul\":14061:14062   */\n      dup4\n        /* \"#utility.yul\":14043:14063   */\n      tag_81\n      jump\t// in\n    tag_261:\n        /* \"#utility.yul\":14038:14063   */\n      swap3\n      pop\n        /* \"#utility.yul\":14086:14087   */\n      dup3\n        /* \"#utility.yul\":14083:14084   */\n      dup3\n        /* \"#utility.yul\":14079:14088   */\n      add\n        /* \"#utility.yul\":14072:14088   */\n      swap1\n      pop\n        /* \"#utility.yul\":14107:14110   */\n      dup1\n        /* \"#utility.yul\":14104:14105   */\n      dup3\n        /* \"#utility.yul\":14101:14111   */\n      gt\n        /* \"#utility.yul\":14098:14134   */\n      iszero\n      tag_262\n      jumpi\n        /* \"#utility.yul\":14114:14132   */\n      tag_263\n      tag_115\n      jump\t// in\n    tag_263:\n        /* \"#utility.yul\":14098:14134   */\n    tag_262:\n        /* \"#utility.yul\":13950:14141   */\n      swap3\n      swap2\n      pop\n      pop\n      jump\t// out\n        /* \"#utility.yul\":14147:14288   */\n    tag_116:\n        /* \"#utility.yul\":14196:14200   */\n      0x00\n        /* \"#utility.yul\":14219:14222   */\n      dup2\n        /* \"#utility.yul\":14211:14222   */\n      swap1\n      pop\n        /* \"#utility.yul\":14242:14245   */\n      dup2\n        /* \"#utility.yul\":14239:14240   */\n      0x00\n        /* \"#utility.yul\":14232:14246   */\n      mstore\n        /* \"#utility.yul\":14276:14280   */\n      0x20\n        /* \"#utility.yul\":14273:14274   */\n      0x00\n        /* \"#utility.yul\":14263:14281   */\n      keccak256\n        /* \"#utility.yul\":14255:14281   */\n      swap1\n      pop\n        /* \"#utility.yul\":14147:14288   */\n      swap2\n      swap1\n      pop\n      jump\t// out\n        /* \"#utility.yul\":14294:14387   */\n    tag_117:\n        /* \"#utility.yul\":14331:14337   */\n      0x00\n        /* \"#utility.yul\":14378:14380   */\n      0x20\n        /* \"#utility.yul\":14373:14375   */\n      0x1f\n        /* \"#utility.yul\":14366:14371   */\n      dup4\n        /* \"#utility.yul\":14362:14376   */\n      add\n        /* \"#utility.yul\":14358:14381   */\n      div\n        /* \"#utility.yul\":14348:14381   */\n      swap1\n      pop\n        /* \"#utility.yul\":14294:14387   */\n      swap2\n      swap1\n      pop\n      jump\t// out\n        /* \"#utility.yul\":14393:14500   */\n    tag_118:\n        /* \"#utility.yul\":14437:14445   */\n      0x00\n        /* \"#utility.yul\":14487:14492   */\n      dup3\n        /* \"#utility.yul\":14481:14485   */\n      dup3\n        /* \"#utility.yul\":14477:14493   */\n      shl\n        /* \"#utility.yul\":14456:14493   */\n      swap1\n      pop\n        /* \"#utility.yul\":14393:14500   */\n      swap3\n      swap2\n      pop\n      pop\n      jump\t// out\n        /* \"#utility.yul\":14506:14899   */\n    tag_119:\n        /* \"#utility.yul\":14575:14581   */\n      0x00\n        /* \"#utility.yul\":14625:14626   */\n      0x08\n        /* \"#utility.yul\":14613:14623   */\n      dup4\n        /* \"#utility.yul\":14609:14627   */\n      mul\n        /* \"#utility.yul\":14648:14745   */\n      tag_268\n        /* \"#utility.yul\":14678:14744   */\n      0xffffffffffffffffffffffffffffffffffffffffffffffffffffffffffffffff\n        /* \"#utility.yul\":14667:14676   */\n      dup3\n        /* \"#utility.yul\":14648:14745   */\n      tag_118\n      jump\t// in\n    tag_268:\n        /* \"#utility.yul\":14766:14805   */\n      tag_269\n        /* \"#utility.yul\":14796:14804   */\n      dup7\n        /* \"#utility.yul\":14785:14794   */\n      dup4\n        /* \"#utility.yul\":14766:14805   */\n      tag_118\n      jump\t// in\n    tag_269:\n        /* \"#utility.yul\":14754:14805   */\n      swap6\n      pop\n        /* \"#utility.yul\":14838:14842   */\n      dup1\n        /* \"#utility.yul\":14834:14843   */\n      not\n        /* \"#utility.yul\":14827:14832   */\n      dup5\n        /* \"#utility.yul\":14823:14844   */\n      and\n        /* \"#utility.yul\":14814:14844   */\n      swap4\n      pop\n        /* \"#utility.yul\":14887:14891   */\n      dup1\n        /* \"#utility.yul\":14877:14885   */\n      dup7\n        /* \"#utility.yul\":14873:14892   */\n      and\n        /* \"#utility.yul\":14866:14871   */\n      dup5\n        /* \"#utility.yul\":14863:14893   */\n      or\n        /* \"#utility.yul\":14853:14893   */\n      swap3\n      pop\n        /* \"#utility.yul\":14582:14899   */\n      pop\n      pop\n        /* \"#utility.yul\":14506:14899   */\n      swap4\n      swap3\n      pop\n      pop\n      pop\n      jump\t// out\n        /* \"#utility.yul\":14905:14965   */\n    tag_120:\n        /* \"#utility.yul\":14933:14936   */\n      0x00\n        /* \"#utility.yul\":14954:14959   */\n      dup2\n        /* \"#utility.yul\":14947:14959   */\n      swap1\n      pop\n        /* \"#utility.yul\":14905:14965   */\n      swap2\n      swap1\n      pop\n      jump\t// out\n        /* \"#utility.yul\":14971:15113   */\n    tag_121:\n        /* \"#utility.yul\":15021:15030   */\n      0x00\n        /* \"#utility.yul\":15054:15107   */\n      tag_272\n        /* \"#utility.yul\":15072:15106   */\n      tag_273\n        /* \"#utility.yul\":15081:15105   */\n      tag_274\n        /* \"#utility.yul\":15099:15104   */\n      dup5\n        /* \"#utility.yul\":15081:15105   */\n      tag_81\n      jump\t// in\n    tag_274:\n        /* \"#utility.yul\":15072:15106   */\n      tag_120\n      jump\t// in\n    tag_273:\n        /* \"#utility.yul\":15054:15107   */\n      tag_81\n      jump\t// in\n    tag_272:\n        /* \"#utility.yul\":15041:15107   */\n      swap1\n      pop\n        /* \"#utility.yul\":14971:15113   */\n      swap2\n      swap1\n      pop\n      jump\t// out\n        /* \"#utility.yul\":15119:15194   */\n    tag_122:\n        /* \"#utility.yul\":15162:15165   */\n      0x00\n        /* \"#utility.yul\":15183:15188   */\n      dup2\n        /* \"#utility.yul\":15176:15188   */\n      swap1\n      pop\n        /* \"#utility.yul\":15119:15194   */\n      swap2\n      swap1\n      pop\n      jump\t// out\n        /* \"#utility.yul\":15200:15469   */\n    tag_123:\n        /* \"#utility.yul\":15310:15349   */\n      tag_277\n        /* \"#utility.yul\":15341:15348   */\n      dup4\n        /* \"#utility.yul\":15310:15349   */\n      tag_121\n      jump\t// in\n    tag_277:\n        /* \"#utility.yul\":15371:15462   */\n      tag_278\n        /* \"#utility.yul\":15420:15461   */\n      tag_279\n        /* \"#utility.yul\":15444:15460   */\n      dup3\n        /* \"#utility.yul\":15420:15461   */\n      tag_122\n      jump\t// in\n    tag_279:\n        /* \"#utility.yul\":15412:15418   */\n      dup5\n        /* \"#utility.yul\":15405:15409   */\n      dup5\n        /* \"#utility.yul\":15399:15410   */\n      sload\n        /* \"#utility.yul\":15371:15462   */\n      tag_119\n      jump\t// in\n    tag_278:\n        /* \"#utility.yul\":15365:15369   */\n      dup3\n        /* \"#utility.yul\":15358:15463   */\n      sstore\n        /* \"#utility.yul\":15276:15469   */\n      pop\n        /* \"#utility.yul\":15200:15469   */\n      pop\n      pop\n      pop\n      jump\t// out\n        /* \"#utility.yul\":15475:15548   */\n    tag_124:\n        /* \"#utility.yul\":15520:15523   */\n      0x00\n        /* \"#utility.yul\":15475:15548   */\n      swap1\n      jump\t// out\n        /* \"#utility.yul\":15554:15743   */\n    tag_125:\n        /* \"#utility.yul\":15631:15663   */\n      tag_282\n      tag_124\n      jump\t// in\n    tag_282:\n        /* \"#utility.yul\":15672:15737   */\n      tag_283\n        /* \"#utility.yul\":15730:15736   */\n      dup2\n        /* \"#utility.yul\":15722:15728   */\n      dup5\n        /* \"#utility.yul\":15716:15720   */\n      dup5\n        /* \"#utility.yul\":15672:15737   */\n      tag_123\n      jump\t// in\n    tag_283:\n        /* \"#utility.yul\":15607:15743   */\n      pop\n        /* \"#utility.yul\":15554:15743   */\n      pop\n      pop\n      jump\t// out\n        /* \"#utility.yul\":15749:15935   */\n    tag_126:\n        /* \"#utility.yul\":15809:15929   */\n    tag_285:\n        /* \"#utility.yul\":15826:15829   */\n      dup2\n        /* \"#utility.yul\":15819:15824   */\n      dup2\n        /* \"#utility.yul\":15816:15830   */\n      lt\n        /* \"#utility.yul\":15809:15929   */\n      iszero\n      tag_287\n      jumpi\n        /* \"#utility.yul\":15880:15919   */\n      tag_288\n        /* \"#utility.yul\":15917:15918   */\n      0x00\n        /* \"#utility.yul\":15910:15915   */\n      dup3\n        /* \"#utility.yul\":15880:15919   */\n      tag_125\n      jump\t// in\n    tag_288:\n        /* \"#utility.yul\":15853:15854   */\n      0x01\n        /* \"#utility.yul\":15846:15851   */\n      dup2\n        /* \"#utility.yul\":15842:15855   */\n      add\n        /* \"#utility.yul\":15833:15855   */\n      swap1\n      pop\n        /* \"#utility.yul\":15809:15929   */\n      jump(tag_285)\n    tag_287:\n        /* \"#utility.yul\":15749:15935   */\n      pop\n      pop\n      jump\t// out\n        /* \"#utility.yul\":15941:16484   */\n    tag_127:\n        /* \"#utility.yul\":16042:16044   */\n      0x1f\n        /* \"#utility.yul\":16037:16040   */\n      dup3\n        /* \"#utility.yul\":16034:16045   */\n      gt\n        /* \"#utility.yul\":16031:16477   */\n      iszero\n      tag_290\n      jumpi\n        /* \"#utility.yul\":16076:16114   */\n      tag_291\n        /* \"#utility.yul\":16108:16113   */\n      dup2\n        /* \"#utility.yul\":16076:16114   */\n      tag_116\n      jump\t// in\n    tag_291:\n        /* \"#utility.yul\":16160:16189   */\n      tag_292\n        /* \"#utility.yul\":16178:16188   */\n      dup5\n        /* \"#utility.yul\":16160:16189   */\n      tag_117\n      jump\t// in\n    tag_292:\n        /* \"#utility.yul\":16150:16158   */\n      dup2\n        /* \"#utility.yul\":16146:16190   */\n      add\n        /* \"#utility.yul\":16343:16345   */\n      0x20\n        /* \"#utility.yul\":16331:16341   */\n      dup6\n        /* \"#utility.yul\":16328:16346   */\n      lt\n        /* \"#utility.yul\":16325:16374   */\n      iszero\n      tag_293\n      jumpi\n        /* \"#utility.yul\":16364:16372   */\n      dup2\n        /* \"#utility.yul\":16349:16372   */\n      swap1\n      pop\n        /* \"#utility.yul\":16325:16374   */\n    tag_293:\n        /* \"#utility.yul\":16387:16467   */\n      tag_294\n        /* \"#utility.yul\":16443:16465   */\n      tag_295\n        /* \"#utility.yul\":16461:16464   */\n      dup6\n        /* \"#utility.yul\":16443:16465   */\n      tag_117\n      jump\t// in\n    tag_295:\n        /* \"#utility.yul\":16433:16441   */\n      dup4\n        /* \"#utility.yul\":16429:16466   */\n      add\n        /* \"#utility.yul\":16416:16427   */\n      dup3\n        /* \"#utility.yul\":16387:16467   */\n      tag_126\n      jump\t// in\n    tag_294:\n        /* \"#utility.yul\":16046:16477   */\n      pop\n      pop\n        /* \"#utility.yul\":16031:16477   */\n    tag_290:\n        /* \"#utility.yul\":15941:16484   */\n      pop\n      pop\n      pop\n      jump\t// out\n        /* \"#utility.yul\":16490:16607   */\n    tag_128:\n        /* \"#utility.yul\":16544:16552   */\n      0x00\n        /* \"#utility.yul\":16594:16599   */\n      dup3\n        /* \"#utility.yul\":16588:16592   */\n      dup3\n        /* \"#utility.yul\":16584:16600   */\n      shr\n        /* \"#utility.yul\":16563:16600   */\n      swap1\n      pop\n        /* \"#utility.yul\":16490:16607   */\n      swap3\n      swap2\n      pop\n      pop\n      jump\t// out\n        /* \"#utility.yul\":16613:16782   */\n    tag_129:\n        /* \"#utility.yul\":16657:16663   */\n      0x00\n        /* \"#utility.yul\":16690:16741   */\n      tag_298\n        /* \"#utility.yul\":16738:16739   */\n      0x00\n        /* \"#utility.yul\":16734:16740   */\n      not\n        /* \"#utility.yul\":16726:16731   */\n      dup5\n        /* \"#utility.yul\":16723:16724   */\n      0x08\n        /* \"#utility.yul\":16719:16732   */\n      mul\n        /* \"#utility.yul\":16690:16741   */\n      tag_128\n      jump\t// in\n    tag_298:\n        /* \"#utility.yul\":16686:16742   */\n      not\n        /* \"#utility.yul\":16771:16775   */\n      dup1\n        /* \"#utility.yul\":16765:16769   */\n      dup4\n        /* \"#utility.yul\":16761:16776   */\n      and\n        /* \"#utility.yul\":16751:16776   */\n      swap2\n      pop\n        /* \"#utility.yul\":16664:16782   */\n      pop\n        /* \"#utility.yul\":16613:16782   */\n      swap3\n      swap2\n      pop\n      pop\n      jump\t// out\n        /* \"#utility.yul\":16787:17082   */\n    tag_130:\n        /* \"#utility.yul\":16863:16867   */\n      0x00\n        /* \"#utility.yul\":17009:17038   */\n      tag_300\n        /* \"#utility.yul\":17034:17037   */\n      dup4\n        /* \"#utility.yul\":17028:17032   */\n      dup4\n        /* \"#utility.yul\":17009:17038   */\n      tag_129\n      jump\t// in\n    tag_300:\n        /* \"#utility.yul\":17001:17038   */\n      swap2\n      pop\n        /* \"#utility.yul\":17071:17074   */\n      dup3\n        /* \"#utility.yul\":17068:17069   */\n      0x02\n        /* \"#utility.yul\":17064:17075   */\n      mul\n        /* \"#utility.yul\":17058:17062   */\n      dup3\n        /* \"#utility.yul\":17055:17076   */\n      or\n        /* \"#utility.yul\":17047:17076   */\n      swap1\n      pop\n        /* \"#utility.yul\":16787:17082   */\n      swap3\n      swap2\n      pop\n      pop\n      jump\t// out\n        /* \"#utility.yul\":17087:18482   */\n    tag_53:\n        /* \"#utility.yul\":17204:17241   */\n      tag_302\n        /* \"#utility.yul\":17237:17240   */\n      dup3\n        /* \"#utility.yul\":17204:17241   */\n      tag_85\n      jump\t// in\n    tag_302:\n        /* \"#utility.yul\":17306:17324   */\n      0xffffffffffffffff\n        /* \"#utility.yul\":17298:17304   */\n      dup2\n        /* \"#utility.yul\":17295:17325   */\n      gt\n        /* \"#utility.yul\":17292:17348   */\n      iszero\n      tag_303\n      jumpi\n        /* \"#utility.yul\":17328:17346   */\n      tag_304\n      tag_93\n      jump\t// in\n    tag_304:\n        /* \"#utility.yul\":17292:17348   */\n    tag_303:\n        /* \"#utility.yul\":17372:17410   */\n      tag_305\n        /* \"#utility.yul\":17404:17408   */\n      dup3\n        /* \"#utility.yul\":17398:17409   */\n      sload\n        /* \"#utility.yul\":17372:17410   */\n      tag_35\n      jump\t// in\n    tag_305:\n        /* \"#utility.yul\":17457:17524   */\n      tag_306\n        /* \"#utility.yul\":17517:17523   */\n      dup3\n        /* \"#utility.yul\":17509:17515   */\n      dup3\n        /* \"#utility.yul\":17503:17507   */\n      dup6\n        /* \"#utility.yul\":17457:17524   */\n      tag_127\n      jump\t// in\n    tag_306:\n        /* \"#utility.yul\":17551:17552   */\n      0x00\n        /* \"#utility.yul\":17575:17579   */\n      0x20\n        /* \"#utility.yul\":17562:17579   */\n      swap1\n      pop\n        /* \"#utility.yul\":17607:17609   */\n      0x1f\n        /* \"#utility.yul\":17599:17605   */\n      dup4\n        /* \"#utility.yul\":17596:17610   */\n      gt\n        /* \"#utility.yul\":17624:17625   */\n      0x01\n        /* \"#utility.yul\":17619:18237   */\n      dup2\n      eq\n      tag_308\n      jumpi\n        /* \"#utility.yul\":18281:18282   */\n      0x00\n        /* \"#utility.yul\":18298:18304   */\n      dup5\n        /* \"#utility.yul\":18295:18372   */\n      iszero\n      tag_309\n      jumpi\n        /* \"#utility.yul\":18347:18356   */\n      dup3\n        /* \"#utility.yul\":18342:18345   */\n      dup8\n        /* \"#utility.yul\":18338:18357   */\n      add\n        /* \"#utility.yul\":18332:18358   */\n      mload\n        /* \"#utility.yul\":18323:18358   */\n      swap1\n      pop\n        /* \"#utility.yul\":18295:18372   */\n    tag_309:\n        /* \"#utility.yul\":18398:18465   */\n      tag_310\n        /* \"#utility.yul\":18458:18464   */\n      dup6\n        /* \"#utility.yul\":18451:18456   */\n      dup3\n        /* \"#utility.yul\":18398:18465   */\n      tag_130\n      jump\t// in\n    tag_310:\n        /* \"#utility.yul\":18392:18396   */\n      dup7\n        /* \"#utility.yul\":18385:18466   */\n      sstore\n        /* \"#utility.yul\":18254:18476   */\n      pop\n        /* \"#utility.yul\":17589:18476   */\n      jump(tag_307)\n        /* \"#utility.yul\":17619:18237   */\n    tag_308:\n        /* \"#utility.yul\":17671:17675   */\n      0x1f\n        /* \"#utility.yul\":17667:17676   */\n      not\n        /* \"#utility.yul\":17659:17665   */\n      dup5\n        /* \"#utility.yul\":17655:17677   */\n      and\n        /* \"#utility.yul\":17705:17742   */\n      tag_311\n        /* \"#utility.yul\":17737:17741   */\n      dup7\n        /* \"#utility.yul\":17705:17742   */\n      tag_116\n      jump\t// in\n    tag_311:\n        /* \"#utility.yul\":17764:17765   */\n      0x00\n        /* \"#utility.yul\":17778:17986   */\n    tag_312:\n        /* \"#utility.yul\":17792:17799   */\n      dup3\n        /* \"#utility.yul\":17789:17790   */\n      dup2\n        /* \"#utility.yul\":17786:17800   */\n      lt\n        /* \"#utility.yul\":17778:17986   */\n      iszero\n      tag_314\n      jumpi\n        /* \"#utility.yul\":17871:17880   */\n      dup5\n        /* \"#utility.yul\":17866:17869   */\n      dup10\n        /* \"#utility.yul\":17862:17881   */\n      add\n        /* \"#utility.yul\":17856:17882   */\n      mload\n        /* \"#utility.yul\":17848:17854   */\n      dup3\n        /* \"#utility.yul\":17841:17883   */\n      sstore\n        /* \"#utility.yul\":17922:17923   */\n      0x01\n        /* \"#utility.yul\":17914:17920   */\n      dup3\n        /* \"#utility.yul\":17910:17924   */\n      add\n        /* \"#utility.yul\":17900:17924   */\n      swap2\n      pop\n        /* \"#utility.yul\":17969:17971   */\n      0x20\n        /* \"#utility.yul\":17958:17967   */\n      dup6\n        /* \"#utility.yul\":17954:17972   */\n      add\n        /* \"#utility.yul\":17941:17972   */\n      swap5\n      pop\n        /* \"#utility.yul\":17815:17819   */\n      0x20\n        /* \"#utility.yul\":17812:17813   */\n      dup2\n        /* \"#utility.yul\":17808:17820   */\n      add\n        /* \"#utility.yul\":17803:17820   */\n      swap1\n      pop\n        /* \"#utility.yul\":17778:17986   */\n      jump(tag_312)\n    tag_314:\n        /* \"#utility.yul\":18014:18020   */\n      dup7\n        /* \"#utility.yul\":18005:18012   */\n      dup4\n        /* \"#utility.yul\":18002:18021   */\n      lt\n        /* \"#utility.yul\":17999:18178   */\n      iszero\n      tag_315\n      jumpi\n        /* \"#utility.yul\":18072:18081   */\n      dup5\n        /* \"#utility.yul\":18067:18070   */\n      dup10\n        /* \"#utility.yul\":18063:18082   */\n      add\n        /* \"#utility.yul\":18057:18083   */\n      mload\n        /* \"#utility.yul\":18115:18163   */\n      tag_316\n        /* \"#utility.yul\":18157:18161   */\n      0x1f\n        /* \"#utility.yul\":18149:18155   */\n      dup10\n        /* \"#utility.yul\":18145:18162   */\n      and\n        /* \"#utility.yul\":18134:18143   */\n      dup3\n        /* \"#utility.yul\":18115:18163   */\n      tag_129\n      jump\t// in\n    tag_316:\n        /* \"#utility.yul\":18107:18113   */\n      dup4\n        /* \"#utility.yul\":18100:18164   */\n      sstore\n        /* \"#utility.yul\":18022:18178   */\n      pop\n        /* \"#utility.yul\":17999:18178   */\n    tag_315:\n        /* \"#utility.yul\":18224:18225   */\n      0x01\n        /* \"#utility.yul\":18220:18221   */\n      0x02\n        /* \"#utility.yul\":18212:18218   */\n      dup9\n        /* \"#utility.yul\":18208:18222   */\n      mul\n        /* \"#utility.yul\":18204:18226   */\n      add\n        /* \"#utility.yul\":18198:18202   */\n      dup9\n        /* \"#utility.yul\":18191:18227   */\n      sstore\n        /* \"#utility.yul\":17626:18237   */\n      pop\n      pop\n      pop\n        /* \"#utility.yul\":17589:18476   */\n    tag_307:\n      pop\n        /* \"#utility.yul\":17179:18482   */\n      pop\n      pop\n      pop\n        /* \"#utility.yul\":17087:18482   */\n      pop\n      pop\n      jump\t// out\n\n    auxdata: 0xa2646970667358221220caa603e80084c6ada86fef304721637b836d7e2bbb1cef5daf38dd3071bbc0df64736f6c634300081a0033\n}\n",
				"bytecode": {
					"linkReferences": {},
					"object": "6080604052348015600e575f80fd5b506110b78061001c5f395ff3fe608060405234801561000f575f80fd5b5060043610610055575f3560e01c806305a1b4a91461005957806306b57a041461008c5780630a7aa8a1146100a857806312e7ee1c146100c45780632cf02026146100f4575b5f80fd5b610073600480360381019061006e91906107ee565b610124565b60405161008394939291906108ba565b60405180910390f35b6100a660048036038101906100a191906107ee565b61020e565b005b6100c260048036038101906100bd9190610a30565b610307565b005b6100de60048036038101906100d99190610a77565b610418565b6040516100eb9190610c23565b60405180910390f35b61010e600480360381019061010991906107ee565b6105a8565b60405161011b9190610ca3565b60405180910390f35b5f602052815f5260405f20818154811061013c575f80fd5b905f5260205f2090600402015f9150915050805f015f9054906101000a900473ffffffffffffffffffffffffffffffffffffffff169080600101805461018190610cf0565b80601f01602080910402602001604051908101604052809291908181526020018280546101ad90610cf0565b80156101f85780601f106101cf576101008083540402835291602001916101f8565b820191905f5260205f20905b8154815290600101906020018083116101db57829003601f168201915b5050505050908060020154908060030154905084565b5f808373ffffffffffffffffffffffffffffffffffffffff1673ffffffffffffffffffffffffffffffffffffffff1681526020019081526020015f2080549050811061028f576040517f08c379a000000000000000000000000000000000000000000000000000000000815260040161028690610d6a565b60405180910390fd5b60015f808473ffffffffffffffffffffffffffffffffffffffff1673ffffffffffffffffffffffffffffffffffffffff1681526020019081526020015f2082815481106102df576102de610d88565b5b905f5260205f2090600402016003015f8282546102fc9190610de2565b925050819055505050565b5f60405180608001604052803373ffffffffffffffffffffffffffffffffffffffff1681526020018381526020014281526020015f81525090505f803373ffffffffffffffffffffffffffffffffffffffff1673ffffffffffffffffffffffffffffffffffffffff1681526020019081526020015f2081908060018154018082558091505060019003905f5260205f2090600402015f909190919091505f820151815f015f6101000a81548173ffffffffffffffffffffffffffffffffffffffff021916908373ffffffffffffffffffffffffffffffffffffffff16021790555060208201518160010190816103fd9190610fb2565b50604082015181600201556060820151816003015550505050565b60605f808373ffffffffffffffffffffffffffffffffffffffff1673ffffffffffffffffffffffffffffffffffffffff1681526020019081526020015f20805480602002602001604051908101604052809291908181526020015f905b8282101561059d578382905f5260205f2090600402016040518060800160405290815f82015f9054906101000a900473ffffffffffffffffffffffffffffffffffffffff1673ffffffffffffffffffffffffffffffffffffffff1673ffffffffffffffffffffffffffffffffffffffff1681526020016001820180546104fa90610cf0565b80601f016020809104026020016040519081016040528092919081815260200182805461052690610cf0565b80156105715780601f1061054857610100808354040283529160200191610571565b820191905f5260205f20905b81548152906001019060200180831161055457829003601f168201915b505050505081526020016002820154815260200160038201548152505081526020019060010190610475565b505050509050919050565b6105b0610715565b5f808473ffffffffffffffffffffffffffffffffffffffff1673ffffffffffffffffffffffffffffffffffffffff1681526020019081526020015f2082815481106105fe576105fd610d88565b5b905f5260205f2090600402016040518060800160405290815f82015f9054906101000a900473ffffffffffffffffffffffffffffffffffffffff1673ffffffffffffffffffffffffffffffffffffffff1673ffffffffffffffffffffffffffffffffffffffff16815260200160018201805461067990610cf0565b80601f01602080910402602001604051908101604052809291908181526020018280546106a590610cf0565b80156106f05780601f106106c7576101008083540402835291602001916106f0565b820191905f5260205f20905b8154815290600101906020018083116106d357829003601f168201915b5050505050815260200160028201548152602001600382015481525050905092915050565b60405180608001604052805f73ffffffffffffffffffffffffffffffffffffffff168152602001606081526020015f81526020015f81525090565b5f604051905090565b5f80fd5b5f80fd5b5f73ffffffffffffffffffffffffffffffffffffffff82169050919050565b5f61078a82610761565b9050919050565b61079a81610780565b81146107a4575f80fd5b50565b5f813590506107b581610791565b92915050565b5f819050919050565b6107cd816107bb565b81146107d7575f80fd5b50565b5f813590506107e8816107c4565b92915050565b5f806040838503121561080457610803610759565b5b5f610811858286016107a7565b9250506020610822858286016107da565b9150509250929050565b61083581610780565b82525050565b5f81519050919050565b5f82825260208201905092915050565b8281835e5f83830152505050565b5f601f19601f8301169050919050565b5f61087d8261083b565b6108878185610845565b9350610897818560208601610855565b6108a081610863565b840191505092915050565b6108b4816107bb565b82525050565b5f6080820190506108cd5f83018761082c565b81810360208301526108df8186610873565b90506108ee60408301856108ab565b6108fb60608301846108ab565b95945050505050565b5f80fd5b5f80fd5b7f4e487b71000000000000000000000000000000000000000000000000000000005f52604160045260245ffd5b61094282610863565b810181811067ffffffffffffffff821117156109615761096061090c565b5b80604052505050565b5f610973610750565b905061097f8282610939565b919050565b5f67ffffffffffffffff82111561099e5761099d61090c565b5b6109a782610863565b9050602081019050919050565b828183375f83830152505050565b5f6109d46109cf84610984565b61096a565b9050828152602081018484840111156109f0576109ef610908565b5b6109fb8482856109b4565b509392505050565b5f82601f830112610a1757610a16610904565b5b8135610a278482602086016109c2565b91505092915050565b5f60208284031215610a4557610a44610759565b5b5f82013567ffffffffffffffff811115610a6257610a6161075d565b5b610a6e84828501610a03565b91505092915050565b5f60208284031215610a8c57610a8b610759565b5b5f610a99848285016107a7565b91505092915050565b5f81519050919050565b5f82825260208201905092915050565b5f819050602082019050919050565b610ad481610780565b82525050565b5f82825260208201905092915050565b5f610af48261083b565b610afe8185610ada565b9350610b0e818560208601610855565b610b1781610863565b840191505092915050565b610b2b816107bb565b82525050565b5f608083015f830151610b465f860182610acb565b5060208301518482036020860152610b5e8282610aea565b9150506040830151610b736040860182610b22565b506060830151610b866060860182610b22565b508091505092915050565b5f610b9c8383610b31565b905092915050565b5f602082019050919050565b5f610bba82610aa2565b610bc48185610aac565b935083602082028501610bd685610abc565b805f5b85811015610c115784840389528151610bf28582610b91565b9450610bfd83610ba4565b925060208a01995050600181019050610bd9565b50829750879550505050505092915050565b5f6020820190508181035f830152610c3b8184610bb0565b905092915050565b5f608083015f830151610c585f860182610acb565b5060208301518482036020860152610c708282610aea565b9150506040830151610c856040860182610b22565b506060830151610c986060860182610b22565b508091505092915050565b5f6020820190508181035f830152610cbb8184610c43565b905092915050565b7f4e487b71000000000000000000000000000000000000000000000000000000005f52602260045260245ffd5b5f6002820490506001821680610d0757607f821691505b602082108103610d1a57610d19610cc3565b5b50919050565b7f496e76616c696420747765657420696e646578000000000000000000000000005f82015250565b5f610d54601383610845565b9150610d5f82610d20565b602082019050919050565b5f6020820190508181035f830152610d8181610d48565b9050919050565b7f4e487b71000000000000000000000000000000000000000000000000000000005f52603260045260245ffd5b7f4e487b71000000000000000000000000000000000000000000000000000000005f52601160045260245ffd5b5f610dec826107bb565b9150610df7836107bb565b9250828201905080821115610e0f57610e0e610db5565b5b92915050565b5f819050815f5260205f209050919050565b5f6020601f8301049050919050565b5f82821b905092915050565b5f60088302610e717fffffffffffffffffffffffffffffffffffffffffffffffffffffffffffffffff82610e36565b610e7b8683610e36565b95508019841693508086168417925050509392505050565b5f819050919050565b5f610eb6610eb1610eac846107bb565b610e93565b6107bb565b9050919050565b5f819050919050565b610ecf83610e9c565b610ee3610edb82610ebd565b848454610e42565b825550505050565b5f90565b610ef7610eeb565b610f02818484610ec6565b505050565b5b81811015610f2557610f1a5f82610eef565b600181019050610f08565b5050565b601f821115610f6a57610f3b81610e15565b610f4484610e27565b81016020851015610f53578190505b610f67610f5f85610e27565b830182610f07565b50505b505050565b5f82821c905092915050565b5f610f8a5f1984600802610f6f565b1980831691505092915050565b5f610fa28383610f7b565b9150826002028217905092915050565b610fbb8261083b565b67ffffffffffffffff811115610fd457610fd361090c565b5b610fde8254610cf0565b610fe9828285610f29565b5f60209050601f83116001811461101a575f8415611008578287015190505b6110128582610f97565b865550611079565b601f19841661102886610e15565b5f5b8281101561104f5784890151825560018201915060208501945060208101905061102a565b8683101561106c5784890151611068601f891682610f7b565b8355505b6001600288020188555050505b50505050505056fea2646970667358221220caa603e80084c6ada86fef304721637b836d7e2bbb1cef5daf38dd3071bbc0df64736f6c634300081a0033",
					"opcodes": "PUSH1 0x80 PUSH1 0x40 MSTORE CALLVALUE DUP1 ISZERO PUSH1 0xE JUMPI PUSH0 DUP1 REVERT JUMPDEST POP PUSH2 0x10B7 DUP1 PUSH2 0x1C PUSH0 CODECOPY PUSH0 RETURN INVALID PUSH1 0x80 PUSH1 0x40 MSTORE CALLVALUE DUP1 ISZERO PUSH2 0xF JUMPI PUSH0 DUP1 REVERT JUMPDEST POP PUSH1 0x4 CALLDATASIZE LT PUSH2 0x55 JUMPI PUSH0 CALLDATALOAD PUSH1 0xE0 SHR DUP1 PUSH4 0x5A1B4A9 EQ PUSH2 0x59 JUMPI DUP1 PUSH4 0x6B57A04 EQ PUSH2 0x8C JUMPI DUP1 PUSH4 0xA7AA8A1 EQ PUSH2 0xA8 JUMPI DUP1 PUSH4 0x12E7EE1C EQ PUSH2 0xC4 JUMPI DUP1 PUSH4 0x2CF02026 EQ PUSH2 0xF4 JUMPI JUMPDEST PUSH0 DUP1 REVERT JUMPDEST PUSH2 0x73 PUSH1 0x4 DUP1 CALLDATASIZE SUB DUP2 ADD SWAP1 PUSH2 0x6E SWAP2 SWAP1 PUSH2 0x7EE JUMP JUMPDEST PUSH2 0x124 JUMP JUMPDEST PUSH1 0x40 MLOAD PUSH2 0x83 SWAP5 SWAP4 SWAP3 SWAP2 SWAP1 PUSH2 0x8BA JUMP JUMPDEST PUSH1 0x40 MLOAD DUP1 SWAP2 SUB SWAP1 RETURN JUMPDEST PUSH2 0xA6 PUSH1 0x4 DUP1 CALLDATASIZE SUB DUP2 ADD SWAP1 PUSH2 0xA1 SWAP2 SWAP1 PUSH2 0x7EE JUMP JUMPDEST PUSH2 0x20E JUMP JUMPDEST STOP JUMPDEST PUSH2 0xC2 PUSH1 0x4 DUP1 CALLDATASIZE SUB DUP2 ADD SWAP1 PUSH2 0xBD SWAP2 SWAP1 PUSH2 0xA30 JUMP JUMPDEST PUSH2 0x307 JUMP JUMPDEST STOP JUMPDEST PUSH2 0xDE PUSH1 0x4 DUP1 CALLDATASIZE SUB DUP2 ADD SWAP1 PUSH2 0xD9 SWAP2 SWAP1 PUSH2 0xA77 JUMP JUMPDEST PUSH2 0x418 JUMP JUMPDEST PUSH1 0x40 MLOAD PUSH2 0xEB SWAP2 SWAP1 PUSH2 0xC23 JUMP JUMPDEST PUSH1 0x40 MLOAD DUP1 SWAP2 SUB SWAP1 RETURN JUMPDEST PUSH2 0x10E PUSH1 0x4 DUP1 CALLDATASIZE SUB DUP2 ADD SWAP1 PUSH2 0x109 SWAP2 SWAP1 PUSH2 0x7EE JUMP JUMPDEST PUSH2 0x5A8 JUMP JUMPDEST PUSH1 0x40 MLOAD PUSH2 0x11B SWAP2 SWAP1 PUSH2 0xCA3 JUMP JUMPDEST PUSH1 0x40 MLOAD DUP1 SWAP2 SUB SWAP1 RETURN JUMPDEST PUSH0 PUSH1 0x20 MSTORE DUP2 PUSH0 MSTORE PUSH1 0x40 PUSH0 KECCAK256 DUP2 DUP2 SLOAD DUP2 LT PUSH2 0x13C JUMPI PUSH0 DUP1 REVERT JUMPDEST SWAP1 PUSH0 MSTORE PUSH1 0x20 PUSH0 KECCAK256 SWAP1 PUSH1 0x4 MUL ADD PUSH0 SWAP2 POP SWAP2 POP POP DUP1 PUSH0 ADD PUSH0 SWAP1 SLOAD SWAP1 PUSH2 0x100 EXP SWAP1 DIV PUSH20 0xFFFFFFFFFFFFFFFFFFFFFFFFFFFFFFFFFFFFFFFF AND SWAP1 DUP1 PUSH1 0x1 ADD DUP1 SLOAD PUSH2 0x181 SWAP1 PUSH2 0xCF0 JUMP JUMPDEST DUP1 PUSH1 0x1F ADD PUSH1 0x20 DUP1 SWAP2 DIV MUL PUSH1 0x20 ADD PUSH1 0x40 MLOAD SWAP1 DUP2 ADD PUSH1 0x40 MSTORE DUP1 SWAP3 SWAP2 SWAP1 DUP2 DUP2 MSTORE PUSH1 0x20 ADD DUP3 DUP1 SLOAD PUSH2 0x1AD SWAP1 PUSH2 0xCF0 JUMP JUMPDEST DUP1 ISZERO PUSH2 0x1F8 JUMPI DUP1 PUSH1 0x1F LT PUSH2 0x1CF JUMPI PUSH2 0x100 DUP1 DUP4 SLOAD DIV MUL DUP4 MSTORE SWAP2 PUSH1 0x20 ADD SWAP2 PUSH2 0x1F8 JUMP JUMPDEST DUP3 ADD SWAP2 SWAP1 PUSH0 MSTORE PUSH1 0x20 PUSH0 KECCAK256 SWAP1 JUMPDEST DUP2 SLOAD DUP2 MSTORE SWAP1 PUSH1 0x1 ADD SWAP1 PUSH1 0x20 ADD DUP1 DUP4 GT PUSH2 0x1DB JUMPI DUP3 SWAP1 SUB PUSH1 0x1F AND DUP3 ADD SWAP2 JUMPDEST POP POP POP POP POP SWAP1 DUP1 PUSH1 0x2 ADD SLOAD SWAP1 DUP1 PUSH1 0x3 ADD SLOAD SWAP1 POP DUP5 JUMP JUMPDEST PUSH0 DUP1 DUP4 PUSH20 0xFFFFFFFFFFFFFFFFFFFFFFFFFFFFFFFFFFFFFFFF AND PUSH20 0xFFFFFFFFFFFFFFFFFFFFFFFFFFFFFFFFFFFFFFFF AND DUP2 MSTORE PUSH1 0x20 ADD SWAP1 DUP2 MSTORE PUSH1 0x20 ADD PUSH0 KECCAK256 DUP1 SLOAD SWAP1 POP DUP2 LT PUSH2 0x28F JUMPI PUSH1 0x40 MLOAD PUSH32 0x8C379A000000000000000000000000000000000000000000000000000000000 DUP2 MSTORE PUSH1 0x4 ADD PUSH2 0x286 SWAP1 PUSH2 0xD6A JUMP JUMPDEST PUSH1 0x40 MLOAD DUP1 SWAP2 SUB SWAP1 REVERT JUMPDEST PUSH1 0x1 PUSH0 DUP1 DUP5 PUSH20 0xFFFFFFFFFFFFFFFFFFFFFFFFFFFFFFFFFFFFFFFF AND PUSH20 0xFFFFFFFFFFFFFFFFFFFFFFFFFFFFFFFFFFFFFFFF AND DUP2 MSTORE PUSH1 0x20 ADD SWAP1 DUP2 MSTORE PUSH1 0x20 ADD PUSH0 KECCAK256 DUP3 DUP2 SLOAD DUP2 LT PUSH2 0x2DF JUMPI PUSH2 0x2DE PUSH2 0xD88 JUMP JUMPDEST JUMPDEST SWAP1 PUSH0 MSTORE PUSH1 0x20 PUSH0 KECCAK256 SWAP1 PUSH1 0x4 MUL ADD PUSH1 0x3 ADD PUSH0 DUP3 DUP3 SLOAD PUSH2 0x2FC SWAP2 SWAP1 PUSH2 0xDE2 JUMP JUMPDEST SWAP3 POP POP DUP2 SWAP1 SSTORE POP POP POP JUMP JUMPDEST PUSH0 PUSH1 0x40 MLOAD DUP1 PUSH1 0x80 ADD PUSH1 0x40 MSTORE DUP1 CALLER PUSH20 0xFFFFFFFFFFFFFFFFFFFFFFFFFFFFFFFFFFFFFFFF AND DUP2 MSTORE PUSH1 0x20 ADD DUP4 DUP2 MSTORE PUSH1 0x20 ADD TIMESTAMP DUP2 MSTORE PUSH1 0x20 ADD PUSH0 DUP2 MSTORE POP SWAP1 POP PUSH0 DUP1 CALLER PUSH20 0xFFFFFFFFFFFFFFFFFFFFFFFFFFFFFFFFFFFFFFFF AND PUSH20 0xFFFFFFFFFFFFFFFFFFFFFFFFFFFFFFFFFFFFFFFF AND DUP2 MSTORE PUSH1 0x20 ADD SWAP1 DUP2 MSTORE PUSH1 0x20 ADD PUSH0 KECCAK256 DUP2 SWAP1 DUP1 PUSH1 0x1 DUP2 SLOAD ADD DUP1 DUP3 SSTORE DUP1 SWAP2 POP POP PUSH1 0x1 SWAP1 SUB SWAP1 PUSH0 MSTORE PUSH1 0x20 PUSH0 KECCAK256 SWAP1 PUSH1 0x4 MUL ADD PUSH0 SWAP1 SWAP2 SWAP1 SWAP2 SWAP1 SWAP2 POP PUSH0 DUP3 ADD MLOAD DUP2 PUSH0 ADD PUSH0 PUSH2 0x100 EXP DUP2 SLOAD DUP2 PUSH20 0xFFFFFFFFFFFFFFFFFFFFFFFFFFFFFFFFFFFFFFFF MUL NOT AND SWAP1 DUP4 PUSH20 0xFFFFFFFFFFFFFFFFFFFFFFFFFFFFFFFFFFFFFFFF AND MUL OR SWAP1 SSTORE POP PUSH1 0x20 DUP3 ADD MLOAD DUP2 PUSH1 0x1 ADD SWAP1 DUP2 PUSH2 0x3FD SWAP2 SWAP1 PUSH2 0xFB2 JUMP JUMPDEST POP PUSH1 0x40 DUP3 ADD MLOAD DUP2 PUSH1 0x2 ADD SSTORE PUSH1 0x60 DUP3 ADD MLOAD DUP2 PUSH1 0x3 ADD SSTORE POP POP POP POP JUMP JUMPDEST PUSH1 0x60 PUSH0 DUP1 DUP4 PUSH20 0xFFFFFFFFFFFFFFFFFFFFFFFFFFFFFFFFFFFFFFFF AND PUSH20 0xFFFFFFFFFFFFFFFFFFFFFFFFFFFFFFFFFFFFFFFF AND DUP2 MSTORE PUSH1 0x20 ADD SWAP1 DUP2 MSTORE PUSH1 0x20 ADD PUSH0 KECCAK256 DUP1 SLOAD DUP1 PUSH1 0x20 MUL PUSH1 0x20 ADD PUSH1 0x40 MLOAD SWAP1 DUP2 ADD PUSH1 0x40 MSTORE DUP1 SWAP3 SWAP2 SWAP1 DUP2 DUP2 MSTORE PUSH1 0x20 ADD PUSH0 SWAP1 JUMPDEST DUP3 DUP3 LT ISZERO PUSH2 0x59D JUMPI DUP4 DUP3 SWAP1 PUSH0 MSTORE PUSH1 0x20 PUSH0 KECCAK256 SWAP1 PUSH1 0x4 MUL ADD PUSH1 0x40 MLOAD DUP1 PUSH1 0x80 ADD PUSH1 0x40 MSTORE SWAP1 DUP2 PUSH0 DUP3 ADD PUSH0 SWAP1 SLOAD SWAP1 PUSH2 0x100 EXP SWAP1 DIV PUSH20 0xFFFFFFFFFFFFFFFFFFFFFFFFFFFFFFFFFFFFFFFF AND PUSH20 0xFFFFFFFFFFFFFFFFFFFFFFFFFFFFFFFFFFFFFFFF AND PUSH20 0xFFFFFFFFFFFFFFFFFFFFFFFFFFFFFFFFFFFFFFFF AND DUP2 MSTORE PUSH1 0x20 ADD PUSH1 0x1 DUP3 ADD DUP1 SLOAD PUSH2 0x4FA SWAP1 PUSH2 0xCF0 JUMP JUMPDEST DUP1 PUSH1 0x1F ADD PUSH1 0x20 DUP1 SWAP2 DIV MUL PUSH1 0x20 ADD PUSH1 0x40 MLOAD SWAP1 DUP2 ADD PUSH1 0x40 MSTORE DUP1 SWAP3 SWAP2 SWAP1 DUP2 DUP2 MSTORE PUSH1 0x20 ADD DUP3 DUP1 SLOAD PUSH2 0x526 SWAP1 PUSH2 0xCF0 JUMP JUMPDEST DUP1 ISZERO PUSH2 0x571 JUMPI DUP1 PUSH1 0x1F LT PUSH2 0x548 JUMPI PUSH2 0x100 DUP1 DUP4 SLOAD DIV MUL DUP4 MSTORE SWAP2 PUSH1 0x20 ADD SWAP2 PUSH2 0x571 JUMP JUMPDEST DUP3 ADD SWAP2 SWAP1 PUSH0 MSTORE PUSH1 0x20 PUSH0 KECCAK256 SWAP1 JUMPDEST DUP2 SLOAD DUP2 MSTORE SWAP1 PUSH1 0x1 ADD SWAP1 PUSH1 0x20 ADD DUP1 DUP4 GT PUSH2 0x554 JUMPI DUP3 SWAP1 SUB PUSH1 0x1F AND DUP3 ADD SWAP2 JUMPDEST POP POP POP POP POP DUP2 MSTORE PUSH1 0x20 ADD PUSH1 0x2 DUP3 ADD SLOAD DUP2 MSTORE PUSH1 0x20 ADD PUSH1 0x3 DUP3 ADD SLOAD DUP2 MSTORE POP POP DUP2 MSTORE PUSH1 0x20 ADD SWAP1 PUSH1 0x1 ADD SWAP1 PUSH2 0x475 JUMP JUMPDEST POP POP POP POP SWAP1 POP SWAP2 SWAP1 POP JUMP JUMPDEST PUSH2 0x5B0 PUSH2 0x715 JUMP JUMPDEST PUSH0 DUP1 DUP5 PUSH20 0xFFFFFFFFFFFFFFFFFFFFFFFFFFFFFFFFFFFFFFFF AND PUSH20 0xFFFFFFFFFFFFFFFFFFFFFFFFFFFFFFFFFFFFFFFF AND DUP2 MSTORE PUSH1 0x20 ADD SWAP1 DUP2 MSTORE PUSH1 0x20 ADD PUSH0 KECCAK256 DUP3 DUP2 SLOAD DUP2 LT PUSH2 0x5FE JUMPI PUSH2 0x5FD PUSH2 0xD88 JUMP JUMPDEST JUMPDEST SWAP1 PUSH0 MSTORE PUSH1 0x20 PUSH0 KECCAK256 SWAP1 PUSH1 0x4 MUL ADD PUSH1 0x40 MLOAD DUP1 PUSH1 0x80 ADD PUSH1 0x40 MSTORE SWAP1 DUP2 PUSH0 DUP3 ADD PUSH0 SWAP1 SLOAD SWAP1 PUSH2 0x100 EXP SWAP1 DIV PUSH20 0xFFFFFFFFFFFFFFFFFFFFFFFFFFFFFFFFFFFFFFFF AND PUSH20 0xFFFFFFFFFFFFFFFFFFFFFFFFFFFFFFFFFFFFFFFF AND PUSH20 0xFFFFFFFFFFFFFFFFFFFFFFFFFFFFFFFFFFFFFFFF AND DUP2 MSTORE PUSH1 0x20 ADD PUSH1 0x1 DUP3 ADD DUP1 SLOAD PUSH2 0x679 SWAP1 PUSH2 0xCF0 JUMP JUMPDEST DUP1 PUSH1 0x1F ADD PUSH1 0x20 DUP1 SWAP2 DIV MUL PUSH1 0x20 ADD PUSH1 0x40 MLOAD SWAP1 DUP2 ADD PUSH1 0x40 MSTORE DUP1 SWAP3 SWAP2 SWAP1 DUP2 DUP2 MSTORE PUSH1 0x20 ADD DUP3 DUP1 SLOAD PUSH2 0x6A5 SWAP1 PUSH2 0xCF0 JUMP JUMPDEST DUP1 ISZERO PUSH2 0x6F0 JUMPI DUP1 PUSH1 0x1F LT PUSH2 0x6C7 JUMPI PUSH2 0x100 DUP1 DUP4 SLOAD DIV MUL DUP4 MSTORE SWAP2 PUSH1 0x20 ADD SWAP2 PUSH2 0x6F0 JUMP JUMPDEST DUP3 ADD SWAP2 SWAP1 PUSH0 MSTORE PUSH1 0x20 PUSH0 KECCAK256 SWAP1 JUMPDEST DUP2 SLOAD DUP2 MSTORE SWAP1 PUSH1 0x1 ADD SWAP1 PUSH1 0x20 ADD DUP1 DUP4 GT PUSH2 0x6D3 JUMPI DUP3 SWAP1 SUB PUSH1 0x1F AND DUP3 ADD SWAP2 JUMPDEST POP POP POP POP POP DUP2 MSTORE PUSH1 0x20 ADD PUSH1 0x2 DUP3 ADD SLOAD DUP2 MSTORE PUSH1 0x20 ADD PUSH1 0x3 DUP3 ADD SLOAD DUP2 MSTORE POP POP SWAP1 POP SWAP3 SWAP2 POP POP JUMP JUMPDEST PUSH1 0x40 MLOAD DUP1 PUSH1 0x80 ADD PUSH1 0x40 MSTORE DUP1 PUSH0 PUSH20 0xFFFFFFFFFFFFFFFFFFFFFFFFFFFFFFFFFFFFFFFF AND DUP2 MSTORE PUSH1 0x20 ADD PUSH1 0x60 DUP2 MSTORE PUSH1 0x20 ADD PUSH0 DUP2 MSTORE PUSH1 0x20 ADD PUSH0 DUP2 MSTORE POP SWAP1 JUMP JUMPDEST PUSH0 PUSH1 0x40 MLOAD SWAP1 POP SWAP1 JUMP JUMPDEST PUSH0 DUP1 REVERT JUMPDEST PUSH0 DUP1 REVERT JUMPDEST PUSH0 PUSH20 0xFFFFFFFFFFFFFFFFFFFFFFFFFFFFFFFFFFFFFFFF DUP3 AND SWAP1 POP SWAP2 SWAP1 POP JUMP JUMPDEST PUSH0 PUSH2 0x78A DUP3 PUSH2 0x761 JUMP JUMPDEST SWAP1 POP SWAP2 SWAP1 POP JUMP JUMPDEST PUSH2 0x79A DUP2 PUSH2 0x780 JUMP JUMPDEST DUP2 EQ PUSH2 0x7A4 JUMPI PUSH0 DUP1 REVERT JUMPDEST POP JUMP JUMPDEST PUSH0 DUP2 CALLDATALOAD SWAP1 POP PUSH2 0x7B5 DUP2 PUSH2 0x791 JUMP JUMPDEST SWAP3 SWAP2 POP POP JUMP JUMPDEST PUSH0 DUP2 SWAP1 POP SWAP2 SWAP1 POP JUMP JUMPDEST PUSH2 0x7CD DUP2 PUSH2 0x7BB JUMP JUMPDEST DUP2 EQ PUSH2 0x7D7 JUMPI PUSH0 DUP1 REVERT JUMPDEST POP JUMP JUMPDEST PUSH0 DUP2 CALLDATALOAD SWAP1 POP PUSH2 0x7E8 DUP2 PUSH2 0x7C4 JUMP JUMPDEST SWAP3 SWAP2 POP POP JUMP JUMPDEST PUSH0 DUP1 PUSH1 0x40 DUP4 DUP6 SUB SLT ISZERO PUSH2 0x804 JUMPI PUSH2 0x803 PUSH2 0x759 JUMP JUMPDEST JUMPDEST PUSH0 PUSH2 0x811 DUP6 DUP3 DUP7 ADD PUSH2 0x7A7 JUMP JUMPDEST SWAP3 POP POP PUSH1 0x20 PUSH2 0x822 DUP6 DUP3 DUP7 ADD PUSH2 0x7DA JUMP JUMPDEST SWAP2 POP POP SWAP3 POP SWAP3 SWAP1 POP JUMP JUMPDEST PUSH2 0x835 DUP2 PUSH2 0x780 JUMP JUMPDEST DUP3 MSTORE POP POP JUMP JUMPDEST PUSH0 DUP2 MLOAD SWAP1 POP SWAP2 SWAP1 POP JUMP JUMPDEST PUSH0 DUP3 DUP3 MSTORE PUSH1 0x20 DUP3 ADD SWAP1 POP SWAP3 SWAP2 POP POP JUMP JUMPDEST DUP3 DUP2 DUP4 MCOPY PUSH0 DUP4 DUP4 ADD MSTORE POP POP POP JUMP JUMPDEST PUSH0 PUSH1 0x1F NOT PUSH1 0x1F DUP4 ADD AND SWAP1 POP SWAP2 SWAP1 POP JUMP JUMPDEST PUSH0 PUSH2 0x87D DUP3 PUSH2 0x83B JUMP JUMPDEST PUSH2 0x887 DUP2 DUP6 PUSH2 0x845 JUMP JUMPDEST SWAP4 POP PUSH2 0x897 DUP2 DUP6 PUSH1 0x20 DUP7 ADD PUSH2 0x855 JUMP JUMPDEST PUSH2 0x8A0 DUP2 PUSH2 0x863 JUMP JUMPDEST DUP5 ADD SWAP2 POP POP SWAP3 SWAP2 POP POP JUMP JUMPDEST PUSH2 0x8B4 DUP2 PUSH2 0x7BB JUMP JUMPDEST DUP3 MSTORE POP POP JUMP JUMPDEST PUSH0 PUSH1 0x80 DUP3 ADD SWAP1 POP PUSH2 0x8CD PUSH0 DUP4 ADD DUP8 PUSH2 0x82C JUMP JUMPDEST DUP2 DUP2 SUB PUSH1 0x20 DUP4 ADD MSTORE PUSH2 0x8DF DUP2 DUP7 PUSH2 0x873 JUMP JUMPDEST SWAP1 POP PUSH2 0x8EE PUSH1 0x40 DUP4 ADD DUP6 PUSH2 0x8AB JUMP JUMPDEST PUSH2 0x8FB PUSH1 0x60 DUP4 ADD DUP5 PUSH2 0x8AB JUMP JUMPDEST SWAP6 SWAP5 POP POP POP POP POP JUMP JUMPDEST PUSH0 DUP1 REVERT JUMPDEST PUSH0 DUP1 REVERT JUMPDEST PUSH32 0x4E487B7100000000000000000000000000000000000000000000000000000000 PUSH0 MSTORE PUSH1 0x41 PUSH1 0x4 MSTORE PUSH1 0x24 PUSH0 REVERT JUMPDEST PUSH2 0x942 DUP3 PUSH2 0x863 JUMP JUMPDEST DUP2 ADD DUP2 DUP2 LT PUSH8 0xFFFFFFFFFFFFFFFF DUP3 GT OR ISZERO PUSH2 0x961 JUMPI PUSH2 0x960 PUSH2 0x90C JUMP JUMPDEST JUMPDEST DUP1 PUSH1 0x40 MSTORE POP POP POP JUMP JUMPDEST PUSH0 PUSH2 0x973 PUSH2 0x750 JUMP JUMPDEST SWAP1 POP PUSH2 0x97F DUP3 DUP3 PUSH2 0x939 JUMP JUMPDEST SWAP2 SWAP1 POP JUMP JUMPDEST PUSH0 PUSH8 0xFFFFFFFFFFFFFFFF DUP3 GT ISZERO PUSH2 0x99E JUMPI PUSH2 0x99D PUSH2 0x90C JUMP JUMPDEST JUMPDEST PUSH2 0x9A7 DUP3 PUSH2 0x863 JUMP JUMPDEST SWAP1 POP PUSH1 0x20 DUP2 ADD SWAP1 POP SWAP2 SWAP1 POP JUMP JUMPDEST DUP3 DUP2 DUP4 CALLDATACOPY PUSH0 DUP4 DUP4 ADD MSTORE POP POP POP JUMP JUMPDEST PUSH0 PUSH2 0x9D4 PUSH2 0x9CF DUP5 PUSH2 0x984 JUMP JUMPDEST PUSH2 0x96A JUMP JUMPDEST SWAP1 POP DUP3 DUP2 MSTORE PUSH1 0x20 DUP2 ADD DUP5 DUP5 DUP5 ADD GT ISZERO PUSH2 0x9F0 JUMPI PUSH2 0x9EF PUSH2 0x908 JUMP JUMPDEST JUMPDEST PUSH2 0x9FB DUP5 DUP3 DUP6 PUSH2 0x9B4 JUMP JUMPDEST POP SWAP4 SWAP3 POP POP POP JUMP JUMPDEST PUSH0 DUP3 PUSH1 0x1F DUP4 ADD SLT PUSH2 0xA17 JUMPI PUSH2 0xA16 PUSH2 0x904 JUMP JUMPDEST JUMPDEST DUP2 CALLDATALOAD PUSH2 0xA27 DUP5 DUP3 PUSH1 0x20 DUP7 ADD PUSH2 0x9C2 JUMP JUMPDEST SWAP2 POP POP SWAP3 SWAP2 POP POP JUMP JUMPDEST PUSH0 PUSH1 0x20 DUP3 DUP5 SUB SLT ISZERO PUSH2 0xA45 JUMPI PUSH2 0xA44 PUSH2 0x759 JUMP JUMPDEST JUMPDEST PUSH0 DUP3 ADD CALLDATALOAD PUSH8 0xFFFFFFFFFFFFFFFF DUP2 GT ISZERO PUSH2 0xA62 JUMPI PUSH2 0xA61 PUSH2 0x75D JUMP JUMPDEST JUMPDEST PUSH2 0xA6E DUP5 DUP3 DUP6 ADD PUSH2 0xA03 JUMP JUMPDEST SWAP2 POP POP SWAP3 SWAP2 POP POP JUMP JUMPDEST PUSH0 PUSH1 0x20 DUP3 DUP5 SUB SLT ISZERO PUSH2 0xA8C JUMPI PUSH2 0xA8B PUSH2 0x759 JUMP JUMPDEST JUMPDEST PUSH0 PUSH2 0xA99 DUP5 DUP3 DUP6 ADD PUSH2 0x7A7 JUMP JUMPDEST SWAP2 POP POP SWAP3 SWAP2 POP POP JUMP JUMPDEST PUSH0 DUP2 MLOAD SWAP1 POP SWAP2 SWAP1 POP JUMP JUMPDEST PUSH0 DUP3 DUP3 MSTORE PUSH1 0x20 DUP3 ADD SWAP1 POP SWAP3 SWAP2 POP POP JUMP JUMPDEST PUSH0 DUP2 SWAP1 POP PUSH1 0x20 DUP3 ADD SWAP1 POP SWAP2 SWAP1 POP JUMP JUMPDEST PUSH2 0xAD4 DUP2 PUSH2 0x780 JUMP JUMPDEST DUP3 MSTORE POP POP JUMP JUMPDEST PUSH0 DUP3 DUP3 MSTORE PUSH1 0x20 DUP3 ADD SWAP1 POP SWAP3 SWAP2 POP POP JUMP JUMPDEST PUSH0 PUSH2 0xAF4 DUP3 PUSH2 0x83B JUMP JUMPDEST PUSH2 0xAFE DUP2 DUP6 PUSH2 0xADA JUMP JUMPDEST SWAP4 POP PUSH2 0xB0E DUP2 DUP6 PUSH1 0x20 DUP7 ADD PUSH2 0x855 JUMP JUMPDEST PUSH2 0xB17 DUP2 PUSH2 0x863 JUMP JUMPDEST DUP5 ADD SWAP2 POP POP SWAP3 SWAP2 POP POP JUMP JUMPDEST PUSH2 0xB2B DUP2 PUSH2 0x7BB JUMP JUMPDEST DUP3 MSTORE POP POP JUMP JUMPDEST PUSH0 PUSH1 0x80 DUP4 ADD PUSH0 DUP4 ADD MLOAD PUSH2 0xB46 PUSH0 DUP7 ADD DUP3 PUSH2 0xACB JUMP JUMPDEST POP PUSH1 0x20 DUP4 ADD MLOAD DUP5 DUP3 SUB PUSH1 0x20 DUP7 ADD MSTORE PUSH2 0xB5E DUP3 DUP3 PUSH2 0xAEA JUMP JUMPDEST SWAP2 POP POP PUSH1 0x40 DUP4 ADD MLOAD PUSH2 0xB73 PUSH1 0x40 DUP7 ADD DUP3 PUSH2 0xB22 JUMP JUMPDEST POP PUSH1 0x60 DUP4 ADD MLOAD PUSH2 0xB86 PUSH1 0x60 DUP7 ADD DUP3 PUSH2 0xB22 JUMP JUMPDEST POP DUP1 SWAP2 POP POP SWAP3 SWAP2 POP POP JUMP JUMPDEST PUSH0 PUSH2 0xB9C DUP4 DUP4 PUSH2 0xB31 JUMP JUMPDEST SWAP1 POP SWAP3 SWAP2 POP POP JUMP JUMPDEST PUSH0 PUSH1 0x20 DUP3 ADD SWAP1 POP SWAP2 SWAP1 POP JUMP JUMPDEST PUSH0 PUSH2 0xBBA DUP3 PUSH2 0xAA2 JUMP JUMPDEST PUSH2 0xBC4 DUP2 DUP6 PUSH2 0xAAC JUMP JUMPDEST SWAP4 POP DUP4 PUSH1 0x20 DUP3 MUL DUP6 ADD PUSH2 0xBD6 DUP6 PUSH2 0xABC JUMP JUMPDEST DUP1 PUSH0 JUMPDEST DUP6 DUP2 LT ISZERO PUSH2 0xC11 JUMPI DUP5 DUP5 SUB DUP10 MSTORE DUP2 MLOAD PUSH2 0xBF2 DUP6 DUP3 PUSH2 0xB91 JUMP JUMPDEST SWAP5 POP PUSH2 0xBFD DUP4 PUSH2 0xBA4 JUMP JUMPDEST SWAP3 POP PUSH1 0x20 DUP11 ADD SWAP10 POP POP PUSH1 0x1 DUP2 ADD SWAP1 POP PUSH2 0xBD9 JUMP JUMPDEST POP DUP3 SWAP8 POP DUP8 SWAP6 POP POP POP POP POP POP SWAP3 SWAP2 POP POP JUMP JUMPDEST PUSH0 PUSH1 0x20 DUP3 ADD SWAP1 POP DUP2 DUP2 SUB PUSH0 DUP4 ADD MSTORE PUSH2 0xC3B DUP2 DUP5 PUSH2 0xBB0 JUMP JUMPDEST SWAP1 POP SWAP3 SWAP2 POP POP JUMP JUMPDEST PUSH0 PUSH1 0x80 DUP4 ADD PUSH0 DUP4 ADD MLOAD PUSH2 0xC58 PUSH0 DUP7 ADD DUP3 PUSH2 0xACB JUMP JUMPDEST POP PUSH1 0x20 DUP4 ADD MLOAD DUP5 DUP3 SUB PUSH1 0x20 DUP7 ADD MSTORE PUSH2 0xC70 DUP3 DUP3 PUSH2 0xAEA JUMP JUMPDEST SWAP2 POP POP PUSH1 0x40 DUP4 ADD MLOAD PUSH2 0xC85 PUSH1 0x40 DUP7 ADD DUP3 PUSH2 0xB22 JUMP JUMPDEST POP PUSH1 0x60 DUP4 ADD MLOAD PUSH2 0xC98 PUSH1 0x60 DUP7 ADD DUP3 PUSH2 0xB22 JUMP JUMPDEST POP DUP1 SWAP2 POP POP SWAP3 SWAP2 POP POP JUMP JUMPDEST PUSH0 PUSH1 0x20 DUP3 ADD SWAP1 POP DUP2 DUP2 SUB PUSH0 DUP4 ADD MSTORE PUSH2 0xCBB DUP2 DUP5 PUSH2 0xC43 JUMP JUMPDEST SWAP1 POP SWAP3 SWAP2 POP POP JUMP JUMPDEST PUSH32 0x4E487B7100000000000000000000000000000000000000000000000000000000 PUSH0 MSTORE PUSH1 0x22 PUSH1 0x4 MSTORE PUSH1 0x24 PUSH0 REVERT JUMPDEST PUSH0 PUSH1 0x2 DUP3 DIV SWAP1 POP PUSH1 0x1 DUP3 AND DUP1 PUSH2 0xD07 JUMPI PUSH1 0x7F DUP3 AND SWAP2 POP JUMPDEST PUSH1 0x20 DUP3 LT DUP2 SUB PUSH2 0xD1A JUMPI PUSH2 0xD19 PUSH2 0xCC3 JUMP JUMPDEST JUMPDEST POP SWAP2 SWAP1 POP JUMP JUMPDEST PUSH32 0x496E76616C696420747765657420696E64657800000000000000000000000000 PUSH0 DUP3 ADD MSTORE POP JUMP JUMPDEST PUSH0 PUSH2 0xD54 PUSH1 0x13 DUP4 PUSH2 0x845 JUMP JUMPDEST SWAP2 POP PUSH2 0xD5F DUP3 PUSH2 0xD20 JUMP JUMPDEST PUSH1 0x20 DUP3 ADD SWAP1 POP SWAP2 SWAP1 POP JUMP JUMPDEST PUSH0 PUSH1 0x20 DUP3 ADD SWAP1 POP DUP2 DUP2 SUB PUSH0 DUP4 ADD MSTORE PUSH2 0xD81 DUP2 PUSH2 0xD48 JUMP JUMPDEST SWAP1 POP SWAP2 SWAP1 POP JUMP JUMPDEST PUSH32 0x4E487B7100000000000000000000000000000000000000000000000000000000 PUSH0 MSTORE PUSH1 0x32 PUSH1 0x4 MSTORE PUSH1 0x24 PUSH0 REVERT JUMPDEST PUSH32 0x4E487B7100000000000000000000000000000000000000000000000000000000 PUSH0 MSTORE PUSH1 0x11 PUSH1 0x4 MSTORE PUSH1 0x24 PUSH0 REVERT JUMPDEST PUSH0 PUSH2 0xDEC DUP3 PUSH2 0x7BB JUMP JUMPDEST SWAP2 POP PUSH2 0xDF7 DUP4 PUSH2 0x7BB JUMP JUMPDEST SWAP3 POP DUP3 DUP3 ADD SWAP1 POP DUP1 DUP3 GT ISZERO PUSH2 0xE0F JUMPI PUSH2 0xE0E PUSH2 0xDB5 JUMP JUMPDEST JUMPDEST SWAP3 SWAP2 POP POP JUMP JUMPDEST PUSH0 DUP2 SWAP1 POP DUP2 PUSH0 MSTORE PUSH1 0x20 PUSH0 KECCAK256 SWAP1 POP SWAP2 SWAP1 POP JUMP JUMPDEST PUSH0 PUSH1 0x20 PUSH1 0x1F DUP4 ADD DIV SWAP1 POP SWAP2 SWAP1 POP JUMP JUMPDEST PUSH0 DUP3 DUP3 SHL SWAP1 POP SWAP3 SWAP2 POP POP JUMP JUMPDEST PUSH0 PUSH1 0x8 DUP4 MUL PUSH2 0xE71 PUSH32 0xFFFFFFFFFFFFFFFFFFFFFFFFFFFFFFFFFFFFFFFFFFFFFFFFFFFFFFFFFFFFFFFF DUP3 PUSH2 0xE36 JUMP JUMPDEST PUSH2 0xE7B DUP7 DUP4 PUSH2 0xE36 JUMP JUMPDEST SWAP6 POP DUP1 NOT DUP5 AND SWAP4 POP DUP1 DUP7 AND DUP5 OR SWAP3 POP POP POP SWAP4 SWAP3 POP POP POP JUMP JUMPDEST PUSH0 DUP2 SWAP1 POP SWAP2 SWAP1 POP JUMP JUMPDEST PUSH0 PUSH2 0xEB6 PUSH2 0xEB1 PUSH2 0xEAC DUP5 PUSH2 0x7BB JUMP JUMPDEST PUSH2 0xE93 JUMP JUMPDEST PUSH2 0x7BB JUMP JUMPDEST SWAP1 POP SWAP2 SWAP1 POP JUMP JUMPDEST PUSH0 DUP2 SWAP1 POP SWAP2 SWAP1 POP JUMP JUMPDEST PUSH2 0xECF DUP4 PUSH2 0xE9C JUMP JUMPDEST PUSH2 0xEE3 PUSH2 0xEDB DUP3 PUSH2 0xEBD JUMP JUMPDEST DUP5 DUP5 SLOAD PUSH2 0xE42 JUMP JUMPDEST DUP3 SSTORE POP POP POP POP JUMP JUMPDEST PUSH0 SWAP1 JUMP JUMPDEST PUSH2 0xEF7 PUSH2 0xEEB JUMP JUMPDEST PUSH2 0xF02 DUP2 DUP5 DUP5 PUSH2 0xEC6 JUMP JUMPDEST POP POP POP JUMP JUMPDEST JUMPDEST DUP2 DUP2 LT ISZERO PUSH2 0xF25 JUMPI PUSH2 0xF1A PUSH0 DUP3 PUSH2 0xEEF JUMP JUMPDEST PUSH1 0x1 DUP2 ADD SWAP1 POP PUSH2 0xF08 JUMP JUMPDEST POP POP JUMP JUMPDEST PUSH1 0x1F DUP3 GT ISZERO PUSH2 0xF6A JUMPI PUSH2 0xF3B DUP2 PUSH2 0xE15 JUMP JUMPDEST PUSH2 0xF44 DUP5 PUSH2 0xE27 JUMP JUMPDEST DUP2 ADD PUSH1 0x20 DUP6 LT ISZERO PUSH2 0xF53 JUMPI DUP2 SWAP1 POP JUMPDEST PUSH2 0xF67 PUSH2 0xF5F DUP6 PUSH2 0xE27 JUMP JUMPDEST DUP4 ADD DUP3 PUSH2 0xF07 JUMP JUMPDEST POP POP JUMPDEST POP POP POP JUMP JUMPDEST PUSH0 DUP3 DUP3 SHR SWAP1 POP SWAP3 SWAP2 POP POP JUMP JUMPDEST PUSH0 PUSH2 0xF8A PUSH0 NOT DUP5 PUSH1 0x8 MUL PUSH2 0xF6F JUMP JUMPDEST NOT DUP1 DUP4 AND SWAP2 POP POP SWAP3 SWAP2 POP POP JUMP JUMPDEST PUSH0 PUSH2 0xFA2 DUP4 DUP4 PUSH2 0xF7B JUMP JUMPDEST SWAP2 POP DUP3 PUSH1 0x2 MUL DUP3 OR SWAP1 POP SWAP3 SWAP2 POP POP JUMP JUMPDEST PUSH2 0xFBB DUP3 PUSH2 0x83B JUMP JUMPDEST PUSH8 0xFFFFFFFFFFFFFFFF DUP2 GT ISZERO PUSH2 0xFD4 JUMPI PUSH2 0xFD3 PUSH2 0x90C JUMP JUMPDEST JUMPDEST PUSH2 0xFDE DUP3 SLOAD PUSH2 0xCF0 JUMP JUMPDEST PUSH2 0xFE9 DUP3 DUP3 DUP6 PUSH2 0xF29 JUMP JUMPDEST PUSH0 PUSH1 0x20 SWAP1 POP PUSH1 0x1F DUP4 GT PUSH1 0x1 DUP2 EQ PUSH2 0x101A JUMPI PUSH0 DUP5 ISZERO PUSH2 0x1008 JUMPI DUP3 DUP8 ADD MLOAD SWAP1 POP JUMPDEST PUSH2 0x1012 DUP6 DUP3 PUSH2 0xF97 JUMP JUMPDEST DUP7 SSTORE POP PUSH2 0x1079 JUMP JUMPDEST PUSH1 0x1F NOT DUP5 AND PUSH2 0x1028 DUP7 PUSH2 0xE15 JUMP JUMPDEST PUSH0 JUMPDEST DUP3 DUP2 LT ISZERO PUSH2 0x104F JUMPI DUP5 DUP10 ADD MLOAD DUP3 SSTORE PUSH1 0x1 DUP3 ADD SWAP2 POP PUSH1 0x20 DUP6 ADD SWAP5 POP PUSH1 0x20 DUP2 ADD SWAP1 POP PUSH2 0x102A JUMP JUMPDEST DUP7 DUP4 LT ISZERO PUSH2 0x106C JUMPI DUP5 DUP10 ADD MLOAD PUSH2 0x1068 PUSH1 0x1F DUP10 AND DUP3 PUSH2 0xF7B JUMP JUMPDEST DUP4 SSTORE POP JUMPDEST PUSH1 0x1 PUSH1 0x2 DUP9 MUL ADD DUP9 SSTORE POP POP POP JUMPDEST POP POP POP POP POP POP JUMP INVALID LOG2 PUSH5 0x6970667358 0x22 SLT KECCAK256 0xCA 0xA6 SUB 0xE8 STOP DUP5 0xC6 0xAD 0xA8 PUSH16 0xEF304721637B836D7E2BBB1CEF5DAF38 0xDD ADDRESS PUSH18 0xBBC0DF64736F6C634300081A003300000000 "
				},
				"gasEstimates": {
					"creation": {
						"codeDepositCost": "855800",
						"executionCost": "888",
						"totalCost": "856688"
					},
					"external": {
						"createTweets(string)": "infinite",
						"getAllTweets(address)": "infinite",
						"getTweets(address,uint256)": "infinite",
						"hitLike(address,uint256)": "infinite",
						"tweets(address,uint256)": "infinite"
					}
				},
				"methodIdentifiers": {
					"createTweets(string)": "0a7aa8a1",
					"getAllTweets(address)": "12e7ee1c",
					"getTweets(address,uint256)": "2cf02026",
					"hitLike(address,uint256)": "06b57a04",
					"tweets(address,uint256)": "05a1b4a9"
				}
			},
			"storageLayout": {
				"storage": [
					{
						"astId": 16,
						"contract": "contracts/tweet.sol:Twitter",
						"label": "tweets",
						"offset": 0,
						"slot": "0",
						"type": "t_mapping(t_address,t_array(t_struct(Tweet)10_storage)dyn_storage)"
					}
				],
				"types": {
					"t_address": {
						"encoding": "inplace",
						"label": "address",
						"numberOfBytes": "20"
					},
					"t_array(t_struct(Tweet)10_storage)dyn_storage": {
						"base": "t_struct(Tweet)10_storage",
						"encoding": "dynamic_array",
						"label": "struct Twitter.Tweet[]",
						"numberOfBytes": "32"
					},
					"t_mapping(t_address,t_array(t_struct(Tweet)10_storage)dyn_storage)": {
						"encoding": "mapping",
						"key": "t_address",
						"label": "mapping(address => struct Twitter.Tweet[])",
						"numberOfBytes": "32",
						"value": "t_array(t_struct(Tweet)10_storage)dyn_storage"
					},
					"t_string_storage": {
						"encoding": "bytes",
						"label": "string",
						"numberOfBytes": "32"
					},
					"t_struct(Tweet)10_storage": {
						"encoding": "inplace",
						"label": "struct Twitter.Tweet",
						"members": [
							{
								"astId": 3,
								"contract": "contracts/tweet.sol:Twitter",
								"label": "author",
								"offset": 0,
								"slot": "0",
								"type": "t_address"
							},
							{
								"astId": 5,
								"contract": "contracts/tweet.sol:Twitter",
								"label": "content",
								"offset": 0,
								"slot": "1",
								"type": "t_string_storage"
							},
							{
								"astId": 7,
								"contract": "contracts/tweet.sol:Twitter",
								"label": "timestamp",
								"offset": 0,
								"slot": "2",
								"type": "t_uint256"
							},
							{
								"astId": 9,
								"contract": "contracts/tweet.sol:Twitter",
								"label": "likes",
								"offset": 0,
								"slot": "3",
								"type": "t_uint256"
							}
						],
						"numberOfBytes": "128"
					},
					"t_uint256": {
						"encoding": "inplace",
						"label": "uint256",
						"numberOfBytes": "32"
					}
				}
			},
			"userdoc": {
				"kind": "user",
				"methods": {},
				"version": 1
			}
		}
	}
}